{
  "contracts/mocks/AggregatorV3Mock.sol": {
    "AggregatorV3Mock": {
      "abi": [
        {
          "inputs": [
            {
              "internalType": "int256",
              "name": "answer",
              "type": "int256"
            }
          ],
          "stateMutability": "nonpayable",
          "type": "constructor"
        },
        {
          "inputs": [],
          "name": "latestAnswer",
          "outputs": [
            {
              "internalType": "int256",
              "name": "",
              "type": "int256"
            }
          ],
          "stateMutability": "view",
          "type": "function"
        },
        {
          "inputs": [],
          "name": "latestTimestamp",
          "outputs": [
            {
              "internalType": "uint256",
              "name": "",
              "type": "uint256"
            }
          ],
          "stateMutability": "view",
          "type": "function"
        }
      ],
      "devdoc": {
        "kind": "dev",
        "methods": {},
        "version": 1
      },
      "evm": {
        "bytecode": {
          "linkReferences": {},
          "object": "60a060405234801561001057600080fd5b5060405161015538038061015583398101604081905261002f91610037565b60805261004f565b600060208284031215610048578081fd5b5051919050565b60805160ee61006760003960006039015260ee6000f3fe6080604052348015600f57600080fd5b506004361060325760003560e01c806350d25bcd1460375780638205bf6a14606b575b600080fd5b7f00000000000000000000000000000000000000000000000000000000000000005b60405190815260200160405180910390f35b605960006078606442607d565b905090565b60008282101560b3577f4e487b710000000000000000000000000000000000000000000000000000000081526011600452602481fd5b50039056fea26469706673582212203facb1563f52e09be84ebb08b5ff4b383ed350c50bf7f436f87310b6301b4e2064736f6c63430008040033",
          "opcodes": "PUSH1 0xA0 PUSH1 0x40 MSTORE CALLVALUE DUP1 ISZERO PUSH2 0x10 JUMPI PUSH1 0x0 DUP1 REVERT JUMPDEST POP PUSH1 0x40 MLOAD PUSH2 0x155 CODESIZE SUB DUP1 PUSH2 0x155 DUP4 CODECOPY DUP2 ADD PUSH1 0x40 DUP2 SWAP1 MSTORE PUSH2 0x2F SWAP2 PUSH2 0x37 JUMP JUMPDEST PUSH1 0x80 MSTORE PUSH2 0x4F JUMP JUMPDEST PUSH1 0x0 PUSH1 0x20 DUP3 DUP5 SUB SLT ISZERO PUSH2 0x48 JUMPI DUP1 DUP2 REVERT JUMPDEST POP MLOAD SWAP2 SWAP1 POP JUMP JUMPDEST PUSH1 0x80 MLOAD PUSH1 0xEE PUSH2 0x67 PUSH1 0x0 CODECOPY PUSH1 0x0 PUSH1 0x39 ADD MSTORE PUSH1 0xEE PUSH1 0x0 RETURN INVALID PUSH1 0x80 PUSH1 0x40 MSTORE CALLVALUE DUP1 ISZERO PUSH1 0xF JUMPI PUSH1 0x0 DUP1 REVERT JUMPDEST POP PUSH1 0x4 CALLDATASIZE LT PUSH1 0x32 JUMPI PUSH1 0x0 CALLDATALOAD PUSH1 0xE0 SHR DUP1 PUSH4 0x50D25BCD EQ PUSH1 0x37 JUMPI DUP1 PUSH4 0x8205BF6A EQ PUSH1 0x6B JUMPI JUMPDEST PUSH1 0x0 DUP1 REVERT JUMPDEST PUSH32 0x0 JUMPDEST PUSH1 0x40 MLOAD SWAP1 DUP2 MSTORE PUSH1 0x20 ADD PUSH1 0x40 MLOAD DUP1 SWAP2 SUB SWAP1 RETURN JUMPDEST PUSH1 0x59 PUSH1 0x0 PUSH1 0x78 PUSH1 0x64 TIMESTAMP PUSH1 0x7D JUMP JUMPDEST SWAP1 POP SWAP1 JUMP JUMPDEST PUSH1 0x0 DUP3 DUP3 LT ISZERO PUSH1 0xB3 JUMPI PUSH32 0x4E487B7100000000000000000000000000000000000000000000000000000000 DUP2 MSTORE PUSH1 0x11 PUSH1 0x4 MSTORE PUSH1 0x24 DUP2 REVERT JUMPDEST POP SUB SWAP1 JUMP INVALID LOG2 PUSH5 0x6970667358 0x22 SLT KECCAK256 EXTCODEHASH 0xAC 0xB1 JUMP EXTCODEHASH MSTORE 0xE0 SWAP12 0xE8 0x4E 0xBB ADDMOD 0xB5 SELFDESTRUCT 0x4B CODESIZE RETURNDATACOPY 0xD3 POP 0xC5 SIGNEXTEND 0xF7 DELEGATECALL CALLDATASIZE 0xF8 PUSH20 0x10B6301B4E2064736F6C63430008040033000000 "
        },
        "gasEstimates": {
          "creation": {
            "codeDepositCost": "47600",
            "executionCost": "infinite",
            "totalCost": "infinite"
          },
          "external": {
            "latestAnswer()": "infinite",
            "latestTimestamp()": "254"
          }
        },
        "methodIdentifiers": {
          "latestAnswer()": "50d25bcd",
          "latestTimestamp()": "8205bf6a"
        }
      },
      "storageLayout": {
        "storage": [],
        "types": null
      },
      "userdoc": {
        "kind": "user",
        "methods": {},
        "version": 1
      }
    }
  }
}