{
  "address": "0x3890EB1F4928C8C0aB05d474b08f78950d25Ce45",
  "abi": [
    {
      "inputs": [
        {
          "internalType": "address",
          "name": "limitOrderProtocol",
          "type": "address"
        },
        {
          "internalType": "contract ILendingPoolAddressesProvider",
          "name": "_lendingPoolAddressProvider",
          "type": "address"
        },
        {
          "internalType": "contract IPriceOracleGetter",
          "name": "_aaveOracleAddress",
          "type": "address"
        }
      ],
      "stateMutability": "nonpayable",
      "type": "constructor"
    },
    {
      "anonymous": false,
      "inputs": [
        {
          "indexed": true,
          "internalType": "address",
          "name": "previousOwner",
          "type": "address"
        },
        {
          "indexed": true,
          "internalType": "address",
          "name": "newOwner",
          "type": "address"
        }
      ],
      "name": "OwnershipTransferred",
      "type": "event"
    },
    {
      "inputs": [],
      "name": "AAVE_ORACLE",
      "outputs": [
        {
          "internalType": "contract IPriceOracleGetter",
          "name": "",
          "type": "address"
        }
      ],
      "stateMutability": "view",
      "type": "function"
    },
    {
      "inputs": [],
      "name": "ADDRESSES_PROVIDER",
      "outputs": [
        {
          "internalType": "contract ILendingPoolAddressesProvider",
          "name": "",
          "type": "address"
        }
      ],
      "stateMutability": "view",
      "type": "function"
    },
    {
      "inputs": [],
      "name": "LENDING_POOL",
      "outputs": [
        {
          "internalType": "contract ILendingPool",
          "name": "",
          "type": "address"
        }
      ],
      "stateMutability": "view",
      "type": "function"
    },
    {
      "inputs": [],
      "name": "LIMIT_ORDER_PROTOCOL",
      "outputs": [
        {
          "internalType": "address",
          "name": "",
          "type": "address"
        }
      ],
      "stateMutability": "view",
      "type": "function"
    },
    {
      "inputs": [],
      "name": "LIMIT_ORDER_TYPEHASH",
      "outputs": [
        {
          "internalType": "bytes32",
          "name": "",
          "type": "bytes32"
        }
      ],
      "stateMutability": "view",
      "type": "function"
    },
    {
      "inputs": [
        {
          "internalType": "address",
          "name": "_asset",
          "type": "address"
        },
        {
          "internalType": "address",
          "name": "_spender",
          "type": "address"
        },
        {
          "internalType": "uint256",
          "name": "_value",
          "type": "uint256"
        }
      ],
      "name": "approve",
      "outputs": [],
      "stateMutability": "nonpayable",
      "type": "function"
    },
    {
      "inputs": [
        {
          "internalType": "address",
          "name": "_asset",
          "type": "address"
        },
        {
          "internalType": "address",
          "name": "_spender",
          "type": "address"
        }
      ],
      "name": "approveMax",
      "outputs": [],
      "stateMutability": "nonpayable",
      "type": "function"
    },
    {
      "inputs": [],
      "name": "fee",
      "outputs": [
        {
          "internalType": "uint256",
          "name": "",
          "type": "uint256"
        }
      ],
      "stateMutability": "view",
      "type": "function"
    },
    {
      "inputs": [
        {
          "internalType": "bytes",
          "name": "signature",
          "type": "bytes"
        }
      ],
      "name": "getHashFromSignature",
      "outputs": [
        {
          "internalType": "bytes32",
          "name": "",
          "type": "bytes32"
        }
      ],
      "stateMutability": "view",
      "type": "function"
    },
    {
      "inputs": [
        {
          "internalType": "address",
          "name": "_user",
          "type": "address"
        }
      ],
      "name": "getHealthFactor",
      "outputs": [
        {
          "internalType": "uint256",
          "name": "",
          "type": "uint256"
        }
      ],
      "stateMutability": "view",
      "type": "function"
    },
    {
      "inputs": [
        {
          "internalType": "uint256",
          "name": "orderTakerAmount",
          "type": "uint256"
        },
        {
          "internalType": "uint256",
          "name": "orderTakerAmountThreshold",
          "type": "uint256"
        },
        {
          "internalType": "address",
          "name": "debtAsset",
          "type": "address"
        },
        {
          "internalType": "address",
          "name": "collateralAsset",
          "type": "address"
        },
        {
          "internalType": "uint256",
          "name": "collateralBonus",
          "type": "uint256"
        },
        {
          "internalType": "uint256",
          "name": "debtReserveDecimals",
          "type": "uint256"
        },
        {
          "internalType": "uint256",
          "name": "collateralReserveDecimals",
          "type": "uint256"
        },
        {
          "internalType": "uint256",
          "name": "swapTakerAmount",
          "type": "uint256"
        }
      ],
      "name": "getMakerAmount",
      "outputs": [
        {
          "internalType": "uint256",
          "name": "",
          "type": "uint256"
        }
      ],
      "stateMutability": "view",
      "type": "function"
    },
    {
      "inputs": [
        {
          "components": [
            {
              "internalType": "uint256",
              "name": "salt",
              "type": "uint256"
            },
            {
              "internalType": "address",
              "name": "makerAsset",
              "type": "address"
            },
            {
              "internalType": "address",
              "name": "takerAsset",
              "type": "address"
            },
            {
              "internalType": "address",
              "name": "maker",
              "type": "address"
            },
            {
              "internalType": "address",
              "name": "receiver",
              "type": "address"
            },
            {
              "internalType": "address",
              "name": "allowedSender",
              "type": "address"
            },
            {
              "internalType": "uint256",
              "name": "makingAmount",
              "type": "uint256"
            },
            {
              "internalType": "uint256",
              "name": "takingAmount",
              "type": "uint256"
            }
          ],
          "internalType": "struct LimitOrderProtocolBase.StaticOrder",
          "name": "staticOrder",
          "type": "tuple"
        },
        {
          "internalType": "bytes",
          "name": "makerAssetData",
          "type": "bytes"
        },
        {
          "internalType": "bytes",
          "name": "takerAssetData",
          "type": "bytes"
        },
        {
          "internalType": "bytes",
          "name": "getMakerAmount",
          "type": "bytes"
        },
        {
          "internalType": "bytes",
          "name": "getTakerAmount",
          "type": "bytes"
        },
        {
          "internalType": "bytes",
          "name": "predicate",
          "type": "bytes"
        },
        {
          "internalType": "bytes",
          "name": "permit",
          "type": "bytes"
        },
        {
          "internalType": "bytes",
          "name": "interaction",
          "type": "bytes"
        }
      ],
      "name": "hashOrder",
      "outputs": [
        {
          "internalType": "bytes32",
          "name": "",
          "type": "bytes32"
        }
      ],
      "stateMutability": "view",
      "type": "function"
    },
    {
      "inputs": [
        {
          "internalType": "address",
          "name": "_user",
          "type": "address"
        },
        {
          "internalType": "uint256",
          "name": "_threshold",
          "type": "uint256"
        }
      ],
      "name": "isHFBelowThreshold",
      "outputs": [
        {
          "internalType": "bool",
          "name": "",
          "type": "bool"
        }
      ],
      "stateMutability": "view",
      "type": "function"
    },
    {
      "inputs": [
        {
          "internalType": "bytes32",
          "name": "hash",
          "type": "bytes32"
        },
        {
          "internalType": "bytes",
          "name": "signature",
          "type": "bytes"
        }
      ],
      "name": "isValidSignature",
      "outputs": [
        {
          "internalType": "bytes4",
          "name": "",
          "type": "bytes4"
        }
      ],
      "stateMutability": "view",
      "type": "function"
    },
    {
      "inputs": [
        {
          "internalType": "address",
          "name": "",
          "type": "address"
        },
        {
          "internalType": "address",
          "name": "makerAsset",
          "type": "address"
        },
        {
          "internalType": "address",
          "name": "takerAsset",
          "type": "address"
        },
        {
          "internalType": "uint256",
          "name": "makingAmount",
          "type": "uint256"
        },
        {
          "internalType": "uint256",
          "name": "takingAmount",
          "type": "uint256"
        },
        {
          "internalType": "bytes",
          "name": "interactiveData",
          "type": "bytes"
        }
      ],
      "name": "notifyFillOrder",
      "outputs": [],
      "stateMutability": "nonpayable",
      "type": "function"
    },
    {
      "inputs": [],
      "name": "owner",
      "outputs": [
        {
          "internalType": "address",
          "name": "",
          "type": "address"
        }
      ],
      "stateMutability": "view",
      "type": "function"
    },
    {
      "inputs": [
        {
          "internalType": "bytes",
          "name": "signature",
          "type": "bytes"
        }
      ],
      "name": "readSignature",
      "outputs": [
        {
          "internalType": "uint256",
          "name": "",
          "type": "uint256"
        }
      ],
      "stateMutability": "pure",
      "type": "function"
    },
    {
      "inputs": [
        {
          "internalType": "bytes",
          "name": "signature",
          "type": "bytes"
        }
      ],
      "name": "readStaticOrder",
      "outputs": [
        {
          "components": [
            {
              "internalType": "uint256",
              "name": "salt",
              "type": "uint256"
            },
            {
              "internalType": "address",
              "name": "makerAsset",
              "type": "address"
            },
            {
              "internalType": "address",
              "name": "takerAsset",
              "type": "address"
            },
            {
              "internalType": "address",
              "name": "maker",
              "type": "address"
            },
            {
              "internalType": "address",
              "name": "receiver",
              "type": "address"
            },
            {
              "internalType": "address",
              "name": "allowedSender",
              "type": "address"
            },
            {
              "internalType": "uint256",
              "name": "makingAmount",
              "type": "uint256"
            },
            {
              "internalType": "uint256",
              "name": "takingAmount",
              "type": "uint256"
            }
          ],
          "internalType": "struct LimitOrderProtocolBase.StaticOrder",
          "name": "",
          "type": "tuple"
        }
      ],
      "stateMutability": "pure",
      "type": "function"
    },
    {
      "inputs": [],
      "name": "renounceOwnership",
      "outputs": [],
      "stateMutability": "nonpayable",
      "type": "function"
    },
    {
      "inputs": [
        {
          "internalType": "uint256",
          "name": "_newFee",
          "type": "uint256"
        }
      ],
      "name": "setFee",
      "outputs": [],
      "stateMutability": "nonpayable",
      "type": "function"
    },
    {
      "inputs": [
        {
          "internalType": "address",
          "name": "_asset",
          "type": "address"
        },
        {
          "internalType": "address",
          "name": "_to",
          "type": "address"
        },
        {
          "internalType": "uint256",
          "name": "_value",
          "type": "uint256"
        }
      ],
      "name": "transfer",
      "outputs": [],
      "stateMutability": "nonpayable",
      "type": "function"
    },
    {
      "inputs": [
        {
          "internalType": "address",
          "name": "newOwner",
          "type": "address"
        }
      ],
      "name": "transferOwnership",
      "outputs": [],
      "stateMutability": "nonpayable",
      "type": "function"
    }
  ],
  "transactionHash": "0x6780bc37b9e26f0909d2e89447346ff3b9d1208bc86fb57d4353d6bf1c83d584",
  "args": [
    "0x94Bc2a1C732BcAd7343B25af48385Fe76E08734f",
    "0xd05e3E715d945B59290df0ae8eF85c1BdB684744",
    "0x0229f777b0fab107f9591a41d5f02e4e98db6f2d"
  ],
  "numDeployments": 1,
  "solcInputHash": "daadcc894a777eacf056d08a087b7b6e",
  "bytecode": "0x6101c06040523480156200001257600080fd5b5060405162001da538038062001da5833981016040819052620000359162000259565b604080518082018252601a81527f31696e6368204c696d6974204f726465722050726f746f636f6c0000000000006020808301918252835180850190945260018452601960f91b90840152815190206001600160a01b0386166101205260c08190527fad7c5bef027816a800da1736444fb58a807ef4c9603b7848673f7e3a68eb14a560e08190524660a05285938593889384939192917f8b73c3c69bb8fe3d512ecc4cf759cc79239f7b179b0ffacaa9a75d522b39400f6200014281848489604080516020808201969096528082019490945260608401929092524660808401526001600160a01b031660a0808401919091528151808403909101815260c09092019052805191012090565b608052610100525050506001600160a01b03928316610140525050821661016081905260408051630261bf8b60e01b81529051630261bf8b916004808201926020929091908290030181865afa158015620001a1573d6000803e3d6000fd5b505050506040513d601f19601f82011682018060405250810190620001c79190620002ad565b6001600160a01b0390811661018052166101a05250620001e733620001f0565b505050620002d4565b600080546001600160a01b038381166001600160a01b0319831681178455604051919092169283917f8be0079c531659141344cd1fd0a4f28419497f9722a3daafe3b4186f6b6457e09190a35050565b6001600160a01b03811681146200025657600080fd5b50565b6000806000606084860312156200026f57600080fd5b83516200027c8162000240565b60208501519093506200028f8162000240565b6040850151909250620002a28162000240565b809150509250925092565b600060208284031215620002c057600080fd5b8151620002cd8162000240565b9392505050565b60805160a05160c05160e05161010051610120516101405161016051610180516101a051611a2b6200037a600039600081816101f401528181610d760152610e060152600081816103310152818161069f01528181610cdb0152610f54015260006101b501526000818161036b0152610a2a01526000611133015260006110b801526000611107015260006110e2015260006110660152600061108f0152611a2b6000f3fe608060405234801561001057600080fd5b50600436106101825760003560e01c80638da5cb5b116100d8578063cf21c7751161008c578063e1f21c6711610066578063e1f21c67146103bc578063f2fde38b146103cf578063fe6bcd7c146103e257600080fd5b8063cf21c7751461038d578063dc7e3b38146103a0578063ddca3f43146103b357600080fd5b8063b4dcfc77116100bd578063b4dcfc771461032c578063beabacc814610353578063c14593841461036657600080fd5b80638da5cb5b14610308578063aec42a171461031957600080fd5b80635295b5111161013a57806369fe0e2d1161011457806369fe0e2d146102d85780636c7fee3e146102ed578063715018a61461030057600080fd5b80635295b5111461027b5780635410c2e11461028e57806354dd5f74146102b157600080fd5b806313f8bf671161016b57806313f8bf67146101ef5780631626ba7e146102165780633717a1b91461025a57600080fd5b806301801e7c146101875780630542975c146101b0575b600080fd5b61019a61019536600461127f565b6103f5565b6040516101a791906112bc565b60405180910390f35b6101d77f000000000000000000000000000000000000000000000000000000000000000081565b6040516001600160a01b0390911681526020016101a7565b6101d77f000000000000000000000000000000000000000000000000000000000000000081565b610229610224366004611329565b6104c4565b6040517fffffffff0000000000000000000000000000000000000000000000000000000090911681526020016101a7565b61026d61026836600461127f565b6105bc565b6040519081526020016101a7565b61026d61028936600461138c565b6105d3565b6102a161029c3660046113f6565b61067b565b60405190151581526020016101a7565b61026d7f7b63e94209420c4f6a2a8ca90b36938c948908697db47a5dc7f8e692ead4991a81565b6102eb6102e6366004611420565b610719565b005b61026d6102fb36600461127f565b610778565b6102eb6107f9565b6000546001600160a01b03166101d7565b6102eb610327366004611439565b61085f565b6101d77f000000000000000000000000000000000000000000000000000000000000000081565b6102eb61036136600461146c565b610932565b6101d77f000000000000000000000000000000000000000000000000000000000000000081565b6102eb61039b3660046114a8565b610a1f565b61026d6103ae366004611613565b610ab4565b61026d60015481565b6102eb6103ca36600461146c565b610b46565b6102eb6103dd366004611747565b610bd5565b61026d6103f0366004611747565b610cb7565b604080516101008082018352600080835260208084018290528385018290526060808501839052608080860184905260a080870185905260c080880186905260e097880186905288518088018a52868152948501868152858a018781528686018881528786018981528886018a81528986018b81528a8e019b8c529d8f0151988f0151978f0151968f0151958f01519c8f01519b8f0151610120909f0151988a526001600160a01b03978816909452948616909152918416909152968216905290931690935293909252915290565b6000806104d0836103f5565b6101408401516101608501516101808601516101a08701516101c08801516101e08901516102008a0151969750948901604090810196948a01810195938a01810194928a01810193918a01810192918a018101918a01018a6105388989898989898989610ab4565b1461058a5760405162461bcd60e51b815260206004820152601560248201527f4c697175696461746f723a20626164206f72646572000000000000000000000060448201526064015b60405180910390fd5b507f1626ba7e000000000000000000000000000000000000000000000000000000009750505050505050505b92915050565b6000806105c8836103f5565b60e001519392505050565b60008782101561064b5760405162461bcd60e51b815260206004820152603260248201527f4c697175696461746f723a2074616b657220616d6f756e742073686f756c642060448201527f62652061626f7665207468726573686f6c6400000000000000000000000000006064820152608401610581565b8861065a8a8989898989610d52565b6106649084611778565b61066e9190611797565b9998505050505050505050565b604051632fe4a15f60e21b81526001600160a01b03838116600483015260009182917f0000000000000000000000000000000000000000000000000000000000000000169063bf92857c9060240160c060405180830381865afa1580156106e6573d6000803e3d6000fd5b505050506040513d601f19601f8201168201806040525081019061070a91906117b9565b90971198975050505050505050565b6000546001600160a01b031633146107735760405162461bcd60e51b815260206004820181905260248201527f4f776e61626c653a2063616c6c6572206973206e6f7420746865206f776e65726044820152606401610581565b600155565b600080610784836103f5565b6101408401516101608501516101808601516101a08701516101c08801516101e08901516102008a0151969750948901604090810196948a01810195938a01810194928a01810193918a01810192918a018101918a01016107eb8888888888888888610ab4565b9a9950505050505050505050565b6000546001600160a01b031633146108535760405162461bcd60e51b815260206004820181905260248201527f4f776e61626c653a2063616c6c6572206973206e6f7420746865206f776e65726044820152606401610581565b61085d6000610e96565b565b6000546001600160a01b031633146108b95760405162461bcd60e51b815260206004820181905260248201527f4f776e61626c653a2063616c6c6572206973206e6f7420746865206f776e65726044820152606401610581565b60405163095ea7b360e01b81526001600160a01b038281166004830152600019602483015283169063095ea7b3906044016020604051808303816000875af1158015610909573d6000803e3d6000fd5b505050506040513d601f19601f8201168201806040525081019061092d9190611803565b505050565b6000546001600160a01b0316331461098c5760405162461bcd60e51b815260206004820181905260248201527f4f776e61626c653a2063616c6c6572206973206e6f7420746865206f776e65726044820152606401610581565b6040517fa9059cbb0000000000000000000000000000000000000000000000000000000081526001600160a01b0383811660048301526024820183905284169063a9059cbb906044015b6020604051808303816000875af11580156109f5573d6000803e3d6000fd5b505050506040513d601f19601f82011682018060405250810190610a199190611803565b50505050565b336001600160a01b037f00000000000000000000000000000000000000000000000000000000000000001614610a975760405162461bcd60e51b815260206004820152601a60248201527f6f6e6c79204c4f502063616e20657865632063616c6c6261636b0000000000006044820152606401610581565b813560601c610aaa878783876000610efe565b5050505050505050565b600061066e7f7b63e94209420c4f6a2a8ca90b36938c948908697db47a5dc7f8e692ead4991a8a8a805190602001208a805190602001208a805190602001208a805190602001208a805190602001208a805190602001208a80519060200120604051602001610b2b99989796959493929190611825565b60405160208183030381529060405280519060200120610fb6565b6000546001600160a01b03163314610ba05760405162461bcd60e51b815260206004820181905260248201527f4f776e61626c653a2063616c6c6572206973206e6f7420746865206f776e65726044820152606401610581565b60405163095ea7b360e01b81526001600160a01b0383811660048301526024820183905284169063095ea7b3906044016109d6565b6000546001600160a01b03163314610c2f5760405162461bcd60e51b815260206004820181905260248201527f4f776e61626c653a2063616c6c6572206973206e6f7420746865206f776e65726044820152606401610581565b6001600160a01b038116610cab5760405162461bcd60e51b815260206004820152602660248201527f4f776e61626c653a206e6577206f776e657220697320746865207a65726f206160448201527f64647265737300000000000000000000000000000000000000000000000000006064820152608401610581565b610cb481610e96565b50565b604051632fe4a15f60e21b81526001600160a01b03828116600483015260009182917f0000000000000000000000000000000000000000000000000000000000000000169063bf92857c9060240160c060405180830381865afa158015610d22573d6000803e3d6000fd5b505050506040513d601f19601f82011682018060405250810190610d4691906117b9565b98975050505050505050565b60405163b3596f0760e01b81526001600160a01b03868116600483015260009182917f0000000000000000000000000000000000000000000000000000000000000000169063b3596f0790602401602060405180830381865afa158015610dbd573d6000803e3d6000fd5b505050506040513d601f19601f82011682018060405250810190610de191906118d5565b60405163b3596f0760e01b81526001600160a01b0388811660048301529192506000917f0000000000000000000000000000000000000000000000000000000000000000169063b3596f0790602401602060405180830381865afa158015610e4d573d6000803e3d6000fd5b505050506040513d601f19601f82011682018060405250810190610e7191906118d5565b905061066e612710610e9088610e8a8d87878b8d61101f565b90611043565b90611056565b600080546001600160a01b038381167fffffffffffffffffffffffff0000000000000000000000000000000000000000831681178455604051919092169283917f8be0079c531659141344cd1fd0a4f28419497f9722a3daafe3b4186f6b6457e09190a35050565b6040517ea718a90000000000000000000000000000000000000000000000000000000081526001600160a01b038681166004830152858116602483015284811660448301526064820184905282151560848301527f0000000000000000000000000000000000000000000000000000000000000000169062a718a99060a401600060405180830381600087803b158015610f9757600080fd5b505af1158015610fab573d6000803e3d6000fd5b505050505050505050565b60006105b6610fc3611062565b836040517f19010000000000000000000000000000000000000000000000000000000000006020820152602281018390526042810182905260009060620160405160208183030381529060405280519060200120905092915050565b600061103984610e906110328989611043565b868661117e565b9695505050505050565b600061104f8284611778565b9392505050565b600061104f8284611797565b60007f00000000000000000000000000000000000000000000000000000000000000004614156110b157507f000000000000000000000000000000000000000000000000000000000000000090565b50604080517f00000000000000000000000000000000000000000000000000000000000000006020808301919091527f0000000000000000000000000000000000000000000000000000000000000000828401527f000000000000000000000000000000000000000000000000000000000000000060608301524660808301527f00000000000000000000000000000000000000000000000000000000000000006001600160a01b031660a0808401919091528351808403909101815260c0909201909252805191012090565b60008183141561118f57508261104f565b818311156111bd576111b66111a483856118ee565b6111af90600a6119e9565b8590611043565b905061104f565b6111b66111ca84846118ee565b6111d590600a6119e9565b8590611056565b634e487b7160e01b600052604160045260246000fd5b600082601f83011261120357600080fd5b813567ffffffffffffffff8082111561121e5761121e6111dc565b604051601f8301601f19908116603f01168101908282118183101715611246576112466111dc565b8160405283815286602085880101111561125f57600080fd5b836020870160208301376000602085830101528094505050505092915050565b60006020828403121561129157600080fd5b813567ffffffffffffffff8111156112a857600080fd5b6112b4848285016111f2565b949350505050565b61010081016105b682848051825260208101516001600160a01b0380821660208501528060408401511660408501528060608401511660608501528060808401511660808501528060a08401511660a0850152505060c081015160c083015260e081015160e08301525050565b6000806040838503121561133c57600080fd5b82359150602083013567ffffffffffffffff81111561135a57600080fd5b611366858286016111f2565b9150509250929050565b80356001600160a01b038116811461138757600080fd5b919050565b600080600080600080600080610100898b0312156113a957600080fd5b88359750602089013596506113c060408a01611370565b95506113ce60608a01611370565b979a969950949760808101359660a0820135965060c0820135955060e0909101359350915050565b6000806040838503121561140957600080fd5b61141283611370565b946020939093013593505050565b60006020828403121561143257600080fd5b5035919050565b6000806040838503121561144c57600080fd5b61145583611370565b915061146360208401611370565b90509250929050565b60008060006060848603121561148157600080fd5b61148a84611370565b925061149860208501611370565b9150604084013590509250925092565b600080600080600080600060c0888a0312156114c357600080fd5b6114cc88611370565b96506114da60208901611370565b95506114e860408901611370565b9450606088013593506080880135925060a088013567ffffffffffffffff8082111561151357600080fd5b818a0191508a601f83011261152757600080fd5b81358181111561153657600080fd5b8b602082850101111561154857600080fd5b60208301945080935050505092959891949750929550565b600061010080838503121561157457600080fd5b6040519081019067ffffffffffffffff82118183101715611597576115976111dc565b81604052809250833581526115ae60208501611370565b60208201526115bf60408501611370565b60408201526115d060608501611370565b60608201526115e160808501611370565b60808201526115f260a08501611370565b60a082015260c084013560c082015260e084013560e0820152505092915050565b6000806000806000806000806101e0898b03121561163057600080fd5b61163a8a8a611560565b975061010089013567ffffffffffffffff8082111561165857600080fd5b6116648c838d016111f2565b98506101208b013591508082111561167b57600080fd5b6116878c838d016111f2565b97506101408b013591508082111561169e57600080fd5b6116aa8c838d016111f2565b96506101608b01359150808211156116c157600080fd5b6116cd8c838d016111f2565b95506101808b01359150808211156116e457600080fd5b6116f08c838d016111f2565b94506101a08b013591508082111561170757600080fd5b6117138c838d016111f2565b93506101c08b013591508082111561172a57600080fd5b506117378b828c016111f2565b9150509295985092959890939650565b60006020828403121561175957600080fd5b61104f82611370565b634e487b7160e01b600052601160045260246000fd5b600081600019048311821515161561179257611792611762565b500290565b6000826117b457634e487b7160e01b600052601260045260246000fd5b500490565b60008060008060008060c087890312156117d257600080fd5b865195506020870151945060408701519350606087015192506080870151915060a087015190509295509295509295565b60006020828403121561181557600080fd5b8151801515811461104f57600080fd5b8981526102008101611898602083018b8051825260208101516001600160a01b0380821660208501528060408401511660408501528060608401511660608501528060808401511660808501528060a08401511660a0850152505060c081015160c083015260e081015160e08301525050565b6101208201989098526101408101969096526101608601949094526101808501929092526101a08401526101c08301526101e09091015292915050565b6000602082840312156118e757600080fd5b5051919050565b60008282101561190057611900611762565b500390565b600181815b8085111561194057816000190482111561192657611926611762565b8085161561193357918102915b93841c939080029061190a565b509250929050565b600082611957575060016105b6565b81611964575060006105b6565b816001811461197a5760028114611984576119a0565b60019150506105b6565b60ff84111561199557611995611762565b50506001821b6105b6565b5060208310610133831016604e8410600b84101617156119c3575081810a6105b6565b6119cd8383611905565b80600019048211156119e1576119e1611762565b029392505050565b600061104f838361194856fea26469706673582212207843c86a8c7988561040d32dbd2e3e9f06f929295940405d1c048819e2770aba64736f6c634300080b0033",
  "devdoc": {
    "kind": "dev",
    "methods": {
      "getMakerAmount(uint256,uint256,address,address,uint256,uint256,uint256,uint256)": {
        "returns": {
          "_0": "Result Floored maker amount"
        }
      },
      "owner()": {
        "details": "Returns the address of the current owner."
      },
      "renounceOwnership()": {
        "details": "Leaves the contract without owner. It will not be possible to call `onlyOwner` functions anymore. Can only be called by the current owner. NOTE: Renouncing ownership will leave the contract without an owner, thereby removing any functionality that is only available to the owner."
      },
      "transferOwnership(address)": {
        "details": "Transfers ownership of the contract to a new account (`newOwner`). Can only be called by the current owner."
      }
    },
    "version": 1
  },
  "userdoc": {
    "kind": "user",
    "methods": {
      "getMakerAmount(uint256,uint256,address,address,uint256,uint256,uint256,uint256)": {
        "notice": "Calculates maker amount based on taker amount and current makerAsset and takerAsset prices"
      },
      "isValidSignature(bytes32,bytes)": {
        "notice": "validate signature from Limit Order Protocol, checks also asset and amount consistency"
      }
    },
    "version": 1
  },
  "storageLayout": {
    "storage": [
      {
        "astId": 110,
        "contract": "contracts/Liquidator.sol:Liquidator",
        "label": "_owner",
        "offset": 0,
        "slot": "0",
        "type": "t_address"
      },
      {
        "astId": 3524,
        "contract": "contracts/Liquidator.sol:Liquidator",
        "label": "fee",
        "offset": 0,
        "slot": "1",
        "type": "t_uint256"
      }
    ],
    "types": {
      "t_address": {
        "encoding": "inplace",
        "label": "address",
        "numberOfBytes": "20"
      },
      "t_uint256": {
        "encoding": "inplace",
        "label": "uint256",
        "numberOfBytes": "32"
      }
    }
  }
}