{
  "_format": "hh-sol-artifact-1",
  "contractName": "TokenMock",
  "sourceName": "contracts/mocks/TokenMock.sol",
  "abi": [
    {
      "inputs": [
        {
          "internalType": "string",
          "name": "name",
          "type": "string"
        },
        {
          "internalType": "string",
          "name": "symbol",
          "type": "string"
        }
      ],
      "stateMutability": "nonpayable",
      "type": "constructor"
    },
    {
      "anonymous": false,
      "inputs": [
        {
          "indexed": true,
          "internalType": "address",
          "name": "owner",
          "type": "address"
        },
        {
          "indexed": true,
          "internalType": "address",
          "name": "spender",
          "type": "address"
        },
        {
          "indexed": false,
          "internalType": "uint256",
          "name": "value",
          "type": "uint256"
        }
      ],
      "name": "Approval",
      "type": "event"
    },
    {
      "anonymous": false,
      "inputs": [
        {
          "indexed": true,
          "internalType": "address",
          "name": "previousOwner",
          "type": "address"
        },
        {
          "indexed": true,
          "internalType": "address",
          "name": "newOwner",
          "type": "address"
        }
      ],
      "name": "OwnershipTransferred",
      "type": "event"
    },
    {
      "anonymous": false,
      "inputs": [
        {
          "indexed": true,
          "internalType": "address",
          "name": "from",
          "type": "address"
        },
        {
          "indexed": true,
          "internalType": "address",
          "name": "to",
          "type": "address"
        },
        {
          "indexed": false,
          "internalType": "uint256",
          "name": "value",
          "type": "uint256"
        }
      ],
      "name": "Transfer",
      "type": "event"
    },
    {
      "inputs": [],
      "name": "DOMAIN_SEPARATOR",
      "outputs": [
        {
          "internalType": "bytes32",
          "name": "",
          "type": "bytes32"
        }
      ],
      "stateMutability": "view",
      "type": "function"
    },
    {
      "inputs": [
        {
          "internalType": "address",
          "name": "owner",
          "type": "address"
        },
        {
          "internalType": "address",
          "name": "spender",
          "type": "address"
        }
      ],
      "name": "allowance",
      "outputs": [
        {
          "internalType": "uint256",
          "name": "",
          "type": "uint256"
        }
      ],
      "stateMutability": "view",
      "type": "function"
    },
    {
      "inputs": [
        {
          "internalType": "address",
          "name": "spender",
          "type": "address"
        },
        {
          "internalType": "uint256",
          "name": "amount",
          "type": "uint256"
        }
      ],
      "name": "approve",
      "outputs": [
        {
          "internalType": "bool",
          "name": "",
          "type": "bool"
        }
      ],
      "stateMutability": "nonpayable",
      "type": "function"
    },
    {
      "inputs": [
        {
          "internalType": "address",
          "name": "account",
          "type": "address"
        }
      ],
      "name": "balanceOf",
      "outputs": [
        {
          "internalType": "uint256",
          "name": "",
          "type": "uint256"
        }
      ],
      "stateMutability": "view",
      "type": "function"
    },
    {
      "inputs": [
        {
          "internalType": "address",
          "name": "account",
          "type": "address"
        },
        {
          "internalType": "uint256",
          "name": "amount",
          "type": "uint256"
        }
      ],
      "name": "burn",
      "outputs": [],
      "stateMutability": "nonpayable",
      "type": "function"
    },
    {
      "inputs": [],
      "name": "decimals",
      "outputs": [
        {
          "internalType": "uint8",
          "name": "",
          "type": "uint8"
        }
      ],
      "stateMutability": "view",
      "type": "function"
    },
    {
      "inputs": [
        {
          "internalType": "address",
          "name": "spender",
          "type": "address"
        },
        {
          "internalType": "uint256",
          "name": "subtractedValue",
          "type": "uint256"
        }
      ],
      "name": "decreaseAllowance",
      "outputs": [
        {
          "internalType": "bool",
          "name": "",
          "type": "bool"
        }
      ],
      "stateMutability": "nonpayable",
      "type": "function"
    },
    {
      "inputs": [],
      "name": "getChainId",
      "outputs": [
        {
          "internalType": "uint256",
          "name": "",
          "type": "uint256"
        }
      ],
      "stateMutability": "view",
      "type": "function"
    },
    {
      "inputs": [
        {
          "internalType": "address",
          "name": "spender",
          "type": "address"
        },
        {
          "internalType": "uint256",
          "name": "addedValue",
          "type": "uint256"
        }
      ],
      "name": "increaseAllowance",
      "outputs": [
        {
          "internalType": "bool",
          "name": "",
          "type": "bool"
        }
      ],
      "stateMutability": "nonpayable",
      "type": "function"
    },
    {
      "inputs": [
        {
          "internalType": "address",
          "name": "account",
          "type": "address"
        },
        {
          "internalType": "uint256",
          "name": "amount",
          "type": "uint256"
        }
      ],
      "name": "mint",
      "outputs": [],
      "stateMutability": "nonpayable",
      "type": "function"
    },
    {
      "inputs": [],
      "name": "name",
      "outputs": [
        {
          "internalType": "string",
          "name": "",
          "type": "string"
        }
      ],
      "stateMutability": "view",
      "type": "function"
    },
    {
      "inputs": [
        {
          "internalType": "address",
          "name": "owner",
          "type": "address"
        }
      ],
      "name": "nonces",
      "outputs": [
        {
          "internalType": "uint256",
          "name": "",
          "type": "uint256"
        }
      ],
      "stateMutability": "view",
      "type": "function"
    },
    {
      "inputs": [],
      "name": "owner",
      "outputs": [
        {
          "internalType": "address",
          "name": "",
          "type": "address"
        }
      ],
      "stateMutability": "view",
      "type": "function"
    },
    {
      "inputs": [
        {
          "internalType": "address",
          "name": "owner",
          "type": "address"
        },
        {
          "internalType": "address",
          "name": "spender",
          "type": "address"
        },
        {
          "internalType": "uint256",
          "name": "value",
          "type": "uint256"
        },
        {
          "internalType": "uint256",
          "name": "deadline",
          "type": "uint256"
        },
        {
          "internalType": "uint8",
          "name": "v",
          "type": "uint8"
        },
        {
          "internalType": "bytes32",
          "name": "r",
          "type": "bytes32"
        },
        {
          "internalType": "bytes32",
          "name": "s",
          "type": "bytes32"
        }
      ],
      "name": "permit",
      "outputs": [],
      "stateMutability": "nonpayable",
      "type": "function"
    },
    {
      "inputs": [],
      "name": "renounceOwnership",
      "outputs": [],
      "stateMutability": "nonpayable",
      "type": "function"
    },
    {
      "inputs": [],
      "name": "symbol",
      "outputs": [
        {
          "internalType": "string",
          "name": "",
          "type": "string"
        }
      ],
      "stateMutability": "view",
      "type": "function"
    },
    {
      "inputs": [],
      "name": "totalSupply",
      "outputs": [
        {
          "internalType": "uint256",
          "name": "",
          "type": "uint256"
        }
      ],
      "stateMutability": "view",
      "type": "function"
    },
    {
      "inputs": [
        {
          "internalType": "address",
          "name": "recipient",
          "type": "address"
        },
        {
          "internalType": "uint256",
          "name": "amount",
          "type": "uint256"
        }
      ],
      "name": "transfer",
      "outputs": [
        {
          "internalType": "bool",
          "name": "",
          "type": "bool"
        }
      ],
      "stateMutability": "nonpayable",
      "type": "function"
    },
    {
      "inputs": [
        {
          "internalType": "address",
          "name": "sender",
          "type": "address"
        },
        {
          "internalType": "address",
          "name": "recipient",
          "type": "address"
        },
        {
          "internalType": "uint256",
          "name": "amount",
          "type": "uint256"
        }
      ],
      "name": "transferFrom",
      "outputs": [
        {
          "internalType": "bool",
          "name": "",
          "type": "bool"
        }
      ],
      "stateMutability": "nonpayable",
      "type": "function"
    },
    {
      "inputs": [
        {
          "internalType": "address",
          "name": "newOwner",
          "type": "address"
        }
      ],
      "name": "transferOwnership",
      "outputs": [],
      "stateMutability": "nonpayable",
      "type": "function"
    }
  ],
  "bytecode": "0x6101606040527f6e71edae12b1b97f4d1f60370fef10105fa2faae0126114a169c64845d6126c9610140523480156200003757600080fd5b5060405162001ab638038062001ab6833981810160405260408110156200005d57600080fd5b81019080805160405193929190846401000000008211156200007e57600080fd5b9083019060208201858111156200009457600080fd5b8251640100000000811182820188101715620000af57600080fd5b82525081516020918201929091019080838360005b83811015620000de578181015183820152602001620000c4565b50505050905090810190601f1680156200010c5780820380516001836020036101000a031916815260200191505b50604052602001805160405193929190846401000000008211156200013057600080fd5b9083019060208201858111156200014657600080fd5b82516401000000008111828201881017156200016157600080fd5b82525081516020918201929091019080838360005b838110156200019057818101518382015260200162000176565b50505050905090810190601f168015620001be5780820380516001836020036101000a031916815260200191505b506040525050508180604051806040016040528060018152602001603160f81b81525084848160039080519060200190620001fb9291906200030a565b508051620002119060049060208401906200030a565b5050825160209384012082519284019290922060e08390526101008190524660a0818152604080517f8b73c3c69bb8fe3d512ecc4cf759cc79239f7b179b0ffacaa9a75d522b39400f818901819052818301979097526060810194909452608080850193909352308483018190528151808603909301835260c0948501909152815191909601209052929092526101205250620002b0905033620002b8565b5050620003ed565b600680546001600160a01b038381166001600160a01b0319831681179093556040519116919082907f8be0079c531659141344cd1fd0a4f28419497f9722a3daafe3b4186f6b6457e090600090a35050565b8280546200031890620003b0565b90600052602060002090601f0160209004810192826200033c576000855562000387565b82601f106200035757805160ff191683800117855562000387565b8280016001018555821562000387579182015b82811115620003875782518255916020019190600101906200036a565b506200039592915062000399565b5090565b5b808211156200039557600081556001016200039a565b600181811c90821680620003c557607f821691505b60208210811415620003e757634e487b7160e01b600052602260045260246000fd5b50919050565b60805160a05160c05160e05161010051610120516101405161166e6200044860003960006108f701526000610ee401526000610f3301526000610f0e01526000610e6701526000610e9101526000610ebb015261166e6000f3fe608060405234801561001057600080fd5b506004361061016c5760003560e01c8063715018a6116100cd578063a457c2d711610081578063d505accf11610066578063d505accf1461040f578063dd62ed3e14610460578063f2fde38b146104a757600080fd5b8063a457c2d7146103b7578063a9059cbb146103e357600080fd5b80638da5cb5b116100b25780638da5cb5b1461035b57806395d89b41146103835780639dc29fac1461038b57600080fd5b8063715018a61461032d5780637ecebe001461033557600080fd5b80633408e47011610124578063395093511161010957806339509351146102a057806340c10f19146102cc57806370a08231146102fa57600080fd5b80633408e470146102925780633644e5151461029857600080fd5b806318160ddd1161015557806318160ddd1461022e57806323b872dd14610244578063313ce5671461027a57600080fd5b806306fdde0314610171578063095ea7b3146101ee575b600080fd5b6101796104cd565b6040805160208082528351818301528351919283929083019185019080838360005b838110156101b357818101518382015260200161019b565b50505050905090810190601f1680156101e05780820380516001836020036101000a031916815260200191505b509250505060405180910390f35b61021a6004803603604081101561020457600080fd5b506001600160a01b03813516906020013561055f565b604080519115158252519081900360200190f35b6002545b60408051918252519081900360200190f35b61021a6004803603606081101561025a57600080fd5b506001600160a01b03813581169160208101359091169060400135610575565b60126040805160ff9092168252519081900360200190f35b46610232565b610232610639565b61021a600480360360408110156102b657600080fd5b506001600160a01b038135169060200135610648565b6102f8600480360360408110156102e257600080fd5b506001600160a01b038135169060200135610684565b005b6102326004803603602081101561031057600080fd5b50356001600160a01b031660009081526020819052604090205490565b6102f86106ec565b6102326004803603602081101561034b57600080fd5b50356001600160a01b0316610752565b6006546001600160a01b0316604080516001600160a01b039092168252519081900360200190f35b610179610772565b6102f8600480360360408110156103a157600080fd5b506001600160a01b038135169060200135610781565b61021a600480360360408110156103cd57600080fd5b506001600160a01b0381351690602001356107e5565b61021a600480360360408110156103f957600080fd5b506001600160a01b038135169060200135610896565b6102f8600480360360e081101561042557600080fd5b506001600160a01b03813581169160208101359091169060408101359060608101359060ff6080820135169060a08101359060c001356108a3565b6102326004803603604081101561047657600080fd5b506001600160a01b038135811660009081526001602090815260408083209482013590931682529290925290205490565b6102f8600480360360208110156104bd57600080fd5b50356001600160a01b0316610a07565b6060600380546104dc906115a8565b80601f0160208091040260200160405190810160405280929190818152602001828054610508906115a8565b80156105555780601f1061052a57610100808354040283529160200191610555565b820191906000526020600020905b81548152906001019060200180831161053857829003601f168201915b5050505050905090565b600061056c338484610ae9565b50600192915050565b6000610582848484610c42565b6001600160a01b0384166000908152600160209081526040808320338452909152902054828110156106215760405162461bcd60e51b815260206004820152602860248201527f45524332303a207472616e7366657220616d6f756e742065786365656473206160448201527f6c6c6f77616e636500000000000000000000000000000000000000000000000060648201526084015b60405180910390fd5b61062e8533858403610ae9565b506001949350505050565b6000610643610e5a565b905090565b3360008181526001602090815260408083206001600160a01b0387168452909152812054909161056c91859061067f9086906115f3565b610ae9565b6006546001600160a01b031633146106de5760405162461bcd60e51b815260206004820181905260248201527f4f776e61626c653a2063616c6c6572206973206e6f7420746865206f776e65726044820152606401610618565b6106e88282610f81565b5050565b6006546001600160a01b031633146107465760405162461bcd60e51b815260206004820181905260248201527f4f776e61626c653a2063616c6c6572206973206e6f7420746865206f776e65726044820152606401610618565b6107506000611060565b565b6001600160a01b0381166000908152600560205260408120545b92915050565b6060600480546104dc906115a8565b6006546001600160a01b031633146107db5760405162461bcd60e51b815260206004820181905260248201527f4f776e61626c653a2063616c6c6572206973206e6f7420746865206f776e65726044820152606401610618565b6106e882826110ca565b3360009081526001602090815260408083206001600160a01b03861684529091528120548281101561087f5760405162461bcd60e51b815260206004820152602560248201527f45524332303a2064656372656173656420616c6c6f77616e63652062656c6f7760448201527f207a65726f0000000000000000000000000000000000000000000000000000006064820152608401610618565b61088c3385858403610ae9565b5060019392505050565b600061056c338484610c42565b834211156108f35760405162461bcd60e51b815260206004820152601d60248201527f45524332305065726d69743a206578706972656420646561646c696e650000006044820152606401610618565b60007f00000000000000000000000000000000000000000000000000000000000000008888886109228c611247565b6040805160208101969096526001600160a01b0394851690860152929091166060840152608083015260a082015260c0810186905260e001604051602081830303815290604052805190602001209050600061097d8261126f565b9050600061098d828787876112d8565b9050896001600160a01b0316816001600160a01b0316146109f05760405162461bcd60e51b815260206004820152601e60248201527f45524332305065726d69743a20696e76616c6964207369676e617475726500006044820152606401610618565b6109fb8a8a8a610ae9565b50505050505050505050565b6006546001600160a01b03163314610a615760405162461bcd60e51b815260206004820181905260248201527f4f776e61626c653a2063616c6c6572206973206e6f7420746865206f776e65726044820152606401610618565b6001600160a01b038116610add5760405162461bcd60e51b815260206004820152602660248201527f4f776e61626c653a206e6577206f776e657220697320746865207a65726f206160448201527f64647265737300000000000000000000000000000000000000000000000000006064820152608401610618565b610ae681611060565b50565b6001600160a01b038316610b645760405162461bcd60e51b8152602060048201526024808201527f45524332303a20617070726f76652066726f6d20746865207a65726f2061646460448201527f72657373000000000000000000000000000000000000000000000000000000006064820152608401610618565b6001600160a01b038216610be05760405162461bcd60e51b815260206004820152602260248201527f45524332303a20617070726f766520746f20746865207a65726f20616464726560448201527f73730000000000000000000000000000000000000000000000000000000000006064820152608401610618565b6001600160a01b0383811660008181526001602090815260408083209487168084529482529182902085905590518481527f8c5be1e5ebec7d5bd14f71427d1e84f3dd0314c0f7b2291e5b200ac8c7c3b92591015b60405180910390a3505050565b6001600160a01b038316610cbe5760405162461bcd60e51b815260206004820152602560248201527f45524332303a207472616e736665722066726f6d20746865207a65726f20616460448201527f64726573730000000000000000000000000000000000000000000000000000006064820152608401610618565b6001600160a01b038216610d3a5760405162461bcd60e51b815260206004820152602360248201527f45524332303a207472616e7366657220746f20746865207a65726f206164647260448201527f65737300000000000000000000000000000000000000000000000000000000006064820152608401610618565b6001600160a01b03831660009081526020819052604090205481811015610dc95760405162461bcd60e51b815260206004820152602660248201527f45524332303a207472616e7366657220616d6f756e742065786365656473206260448201527f616c616e636500000000000000000000000000000000000000000000000000006064820152608401610618565b6001600160a01b03808516600090815260208190526040808220858503905591851681529081208054849290610e009084906115f3565b92505081905550826001600160a01b0316846001600160a01b03167fddf252ad1be2c89b69c2b068fc378daa952ba7f163c4a11628f55a4df523b3ef84604051610e4c91815260200190565b60405180910390a350505050565b6000306001600160a01b037f000000000000000000000000000000000000000000000000000000000000000016148015610eb357507f000000000000000000000000000000000000000000000000000000000000000046145b15610edd57507f000000000000000000000000000000000000000000000000000000000000000090565b50604080517f00000000000000000000000000000000000000000000000000000000000000006020808301919091527f0000000000000000000000000000000000000000000000000000000000000000828401527f000000000000000000000000000000000000000000000000000000000000000060608301524660808301523060a0808401919091528351808403909101815260c0909201909252805191012090565b6001600160a01b038216610fd75760405162461bcd60e51b815260206004820152601f60248201527f45524332303a206d696e7420746f20746865207a65726f2061646472657373006044820152606401610618565b8060026000828254610fe991906115f3565b90915550506001600160a01b038216600090815260208190526040812080548392906110169084906115f3565b90915550506040518181526001600160a01b038316906000907fddf252ad1be2c89b69c2b068fc378daa952ba7f163c4a11628f55a4df523b3ef9060200160405180910390a35050565b600680546001600160a01b038381167fffffffffffffffffffffffff0000000000000000000000000000000000000000831681179093556040519116919082907f8be0079c531659141344cd1fd0a4f28419497f9722a3daafe3b4186f6b6457e090600090a35050565b6001600160a01b0382166111465760405162461bcd60e51b815260206004820152602160248201527f45524332303a206275726e2066726f6d20746865207a65726f2061646472657360448201527f73000000000000000000000000000000000000000000000000000000000000006064820152608401610618565b6001600160a01b038216600090815260208190526040902054818110156111d55760405162461bcd60e51b815260206004820152602260248201527f45524332303a206275726e20616d6f756e7420657863656564732062616c616e60448201527f63650000000000000000000000000000000000000000000000000000000000006064820152608401610618565b6001600160a01b038316600090815260208190526040812083830390556002805484929061120490849061160b565b90915550506040518281526000906001600160a01b038516907fddf252ad1be2c89b69c2b068fc378daa952ba7f163c4a11628f55a4df523b3ef90602001610c35565b6001600160a01b03811660009081526005602052604090208054600181018255905b50919050565b600061076c61127c610e5a565b836040517f19010000000000000000000000000000000000000000000000000000000000006020820152602281018390526042810182905260009060620160405160208183030381529060405280519060200120905092915050565b60008060006112e987878787611300565b915091506112f6816113ed565b5095945050505050565b6000807f7fffffffffffffffffffffffffffffff5d576e7357a4501ddfe92f46681b20a083111561133757506000905060036113e4565b8460ff16601b1415801561134f57508460ff16601c14155b1561136057506000905060046113e4565b6040805160008082526020820180845289905260ff881692820192909252606081018690526080810185905260019060a0016020604051602081039080840390855afa1580156113b4573d6000803e3d6000fd5b5050604051601f1901519150506001600160a01b0381166113dd576000600192509250506113e4565b9150600090505b94509492505050565b600081600481111561140157611401611622565b141561140a5750565b600181600481111561141e5761141e611622565b141561146c5760405162461bcd60e51b815260206004820152601860248201527f45434453413a20696e76616c6964207369676e617475726500000000000000006044820152606401610618565b600281600481111561148057611480611622565b14156114ce5760405162461bcd60e51b815260206004820152601f60248201527f45434453413a20696e76616c6964207369676e6174757265206c656e677468006044820152606401610618565b60038160048111156114e2576114e2611622565b141561153b5760405162461bcd60e51b815260206004820152602260248201527f45434453413a20696e76616c6964207369676e6174757265202773272076616c604482015261756560f01b6064820152608401610618565b600481600481111561154f5761154f611622565b1415610ae65760405162461bcd60e51b815260206004820152602260248201527f45434453413a20696e76616c6964207369676e6174757265202776272076616c604482015261756560f01b6064820152608401610618565b600181811c908216806115bc57607f821691505b6020821081141561126957634e487b7160e01b600052602260045260246000fd5b634e487b7160e01b600052601160045260246000fd5b60008219821115611606576116066115dd565b500190565b60008282101561161d5761161d6115dd565b500390565b634e487b7160e01b600052602160045260246000fdfea26469706673582212209398a210848171a98ea974f8daf35ba20b897977c74b118132020f194a07a6cc64736f6c634300080b0033",
  "linkReferences": {},
  "deployedLinkReferences": {}
}