{
  "_format": "hh-sol-artifact-1",
  "contractName": "AggregatorV3Mock",
  "sourceName": "contracts/mocks/AggregatorV3Mock.sol",
  "abi": [
    {
      "inputs": [
        {
          "internalType": "int256",
          "name": "answer",
          "type": "int256"
        }
      ],
      "stateMutability": "nonpayable",
      "type": "constructor"
    },
    {
      "inputs": [],
      "name": "latestAnswer",
      "outputs": [
        {
          "internalType": "int256",
          "name": "",
          "type": "int256"
        }
      ],
      "stateMutability": "view",
      "type": "function"
    },
    {
      "inputs": [],
      "name": "latestTimestamp",
      "outputs": [
        {
          "internalType": "uint256",
          "name": "",
          "type": "uint256"
        }
      ],
      "stateMutability": "view",
      "type": "function"
    }
  ],
  "bytecode": "0x60a060405234801561001057600080fd5b5060405161015538038061015583398101604081905261002f91610037565b60805261004f565b600060208284031215610048578081fd5b5051919050565b60805160ee61006760003960006039015260ee6000f3fe6080604052348015600f57600080fd5b506004361060325760003560e01c806350d25bcd1460375780638205bf6a14606b575b600080fd5b7f00000000000000000000000000000000000000000000000000000000000000005b60405190815260200160405180910390f35b605960006078606442607d565b905090565b60008282101560b3577f4e487b710000000000000000000000000000000000000000000000000000000081526011600452602481fd5b50039056fea264697066735822122096e397e4f7a7fa84f2081ce8a570282db8328ea38c341a712facfd61f288a18364736f6c63430008040033",
  "linkReferences": {},
  "deployedLinkReferences": {}
}