{
  "_format": "hh-sol-artifact-1",
  "contractName": "Inchi",
  "sourceName": "contracts/Inchi.sol",
  "abi": [
    {
      "inputs": [],
      "name": "getName",
      "outputs": [
        {
          "internalType": "string",
          "name": "",
          "type": "string"
        }
      ],
      "stateMutability": "view",
      "type": "function"
    },
    {
      "inputs": [
        {
          "internalType": "string",
          "name": "newName",
          "type": "string"
        }
      ],
      "name": "setName",
      "outputs": [],
      "stateMutability": "nonpayable",
      "type": "function"
    }
  ],
  "bytecode": "0x60c06040526005608081905264496e63686960d81b60a09081526100269160009190610039565b5034801561003357600080fd5b5061010d565b828054610045906100d2565b90600052602060002090601f01602090048101928261006757600085556100ad565b82601f1061008057805160ff19168380011785556100ad565b828001600101855582156100ad579182015b828111156100ad578251825591602001919060010190610092565b506100b99291506100bd565b5090565b5b808211156100b957600081556001016100be565b600181811c908216806100e657607f821691505b6020821081141561010757634e487b7160e01b600052602260045260246000fd5b50919050565b6102fb8061011c6000396000f3fe608060405234801561001057600080fd5b50600436106100365760003560e01c806317d7de7c1461003b578063c47f002714610059575b600080fd5b61004361006e565b60405161005091906101aa565b60405180910390f35b61006c6100673660046101ff565b610100565b005b60606000805461007d90610271565b80601f01602080910402602001604051908101604052809291908181526020018280546100a990610271565b80156100f65780601f106100cb576101008083540402835291602001916100f6565b820191906000526020600020905b8154815290600101906020018083116100d957829003601f168201915b5050505050905090565b61010c60008383610111565b505050565b82805461011d90610271565b90600052602060002090601f01602090048101928261013f5760008555610185565b82601f106101585782800160ff19823516178555610185565b82800160010185558215610185579182015b8281111561018557823582559160200191906001019061016a565b50610191929150610195565b5090565b5b808211156101915760008155600101610196565b600060208083528351808285015260005b818110156101d7578581018301518582016040015282016101bb565b818111156101e9576000604083870101525b50601f01601f1916929092016040019392505050565b6000806020838503121561021257600080fd5b823567ffffffffffffffff8082111561022a57600080fd5b818501915085601f83011261023e57600080fd5b81358181111561024d57600080fd5b86602082850101111561025f57600080fd5b60209290920196919550909350505050565b600181811c9082168061028557607f821691505b602082108114156102bf577f4e487b7100000000000000000000000000000000000000000000000000000000600052602260045260246000fd5b5091905056fea264697066735822122011cef3a9dfa8a32924e47c01f32a4b123efd93f234392dda345952013fd84ab664736f6c634300080b0033",
  "linkReferences": {},
  "deployedLinkReferences": {}
}