{
  "_format": "hh-sol-artifact-1",
  "contractName": "MockAggregator",
  "sourceName": "contracts/mocks/MockAggregator.sol",
  "abi": [
    {
      "inputs": [
        {
          "internalType": "int256",
          "name": "_initialAnswer",
          "type": "int256"
        }
      ],
      "stateMutability": "nonpayable",
      "type": "constructor"
    },
    {
      "anonymous": false,
      "inputs": [
        {
          "indexed": true,
          "internalType": "int256",
          "name": "current",
          "type": "int256"
        },
        {
          "indexed": true,
          "internalType": "uint256",
          "name": "roundId",
          "type": "uint256"
        },
        {
          "indexed": false,
          "internalType": "uint256",
          "name": "timestamp",
          "type": "uint256"
        }
      ],
      "name": "AnswerUpdated",
      "type": "event"
    },
    {
      "inputs": [],
      "name": "getTokenType",
      "outputs": [
        {
          "internalType": "uint256",
          "name": "",
          "type": "uint256"
        }
      ],
      "stateMutability": "pure",
      "type": "function"
    },
    {
      "inputs": [],
      "name": "latestAnswer",
      "outputs": [
        {
          "internalType": "int256",
          "name": "",
          "type": "int256"
        }
      ],
      "stateMutability": "view",
      "type": "function"
    },
    {
      "inputs": [
        {
          "internalType": "int256",
          "name": "_newAnswer",
          "type": "int256"
        }
      ],
      "name": "setLatestAnswer",
      "outputs": [],
      "stateMutability": "nonpayable",
      "type": "function"
    }
  ],
  "bytecode": "0x608060405234801561001057600080fd5b5060405161018f38038061018f83398101604081905261002f9161006f565b600081815560405142815282907f0559884fd3a460db3073b7fc896cc77986f16e378210ded43186175bf646fc5f9060200160405180910390a350610088565b60006020828403121561008157600080fd5b5051919050565b60f9806100966000396000f3fe6080604052348015600f57600080fd5b5060043610603c5760003560e01c806304ea97b014604157806350d25bcd146052578063fcab1819146068575b600080fd5b6050604c36600460ab565b606e565b005b6000545b60405190815260200160405180910390f35b60016056565b600081815560405142815282907f0559884fd3a460db3073b7fc896cc77986f16e378210ded43186175bf646fc5f9060200160405180910390a350565b60006020828403121560bc57600080fd5b503591905056fea264697066735822122059f35bcde3e8305ddbe982ed5d416d626fb9036404ab889fc0ace132b07ab54464736f6c634300080b0033",
  "linkReferences": {},
  "deployedLinkReferences": {}
}