{
  "_format": "hh-sol-artifact-1",
  "contractName": "Liquidator",
  "sourceName": "contracts/Liquidator.sol",
  "abi": [
    {
      "inputs": [
        {
          "internalType": "address",
          "name": "limitOrderProtocol",
          "type": "address"
        },
        {
          "internalType": "contract ILendingPoolAddressesProvider",
          "name": "_lendingPoolAddressProvider",
          "type": "address"
        },
        {
          "internalType": "contract IPriceOracleGetter",
          "name": "_aaveOracleAddress",
          "type": "address"
        }
      ],
      "stateMutability": "nonpayable",
      "type": "constructor"
    },
    {
      "anonymous": false,
      "inputs": [
        {
          "indexed": true,
          "internalType": "address",
          "name": "previousOwner",
          "type": "address"
        },
        {
          "indexed": true,
          "internalType": "address",
          "name": "newOwner",
          "type": "address"
        }
      ],
      "name": "OwnershipTransferred",
      "type": "event"
    },
    {
      "inputs": [],
      "name": "AAVE_ORACLE",
      "outputs": [
        {
          "internalType": "contract IPriceOracleGetter",
          "name": "",
          "type": "address"
        }
      ],
      "stateMutability": "view",
      "type": "function"
    },
    {
      "inputs": [],
      "name": "ADDRESSES_PROVIDER",
      "outputs": [
        {
          "internalType": "contract ILendingPoolAddressesProvider",
          "name": "",
          "type": "address"
        }
      ],
      "stateMutability": "view",
      "type": "function"
    },
    {
      "inputs": [],
      "name": "DOMAIN_SEPARATOR",
      "outputs": [
        {
          "internalType": "bytes32",
          "name": "",
          "type": "bytes32"
        }
      ],
      "stateMutability": "view",
      "type": "function"
    },
    {
      "inputs": [],
      "name": "LENDING_POOL",
      "outputs": [
        {
          "internalType": "contract ILendingPool",
          "name": "",
          "type": "address"
        }
      ],
      "stateMutability": "view",
      "type": "function"
    },
    {
      "inputs": [],
      "name": "LIMIT_ORDER_PROTOCOL",
      "outputs": [
        {
          "internalType": "address",
          "name": "",
          "type": "address"
        }
      ],
      "stateMutability": "view",
      "type": "function"
    },
    {
      "inputs": [],
      "name": "LIMIT_ORDER_TYPEHASH",
      "outputs": [
        {
          "internalType": "bytes32",
          "name": "",
          "type": "bytes32"
        }
      ],
      "stateMutability": "view",
      "type": "function"
    },
    {
      "inputs": [
        {
          "internalType": "address",
          "name": "_asset",
          "type": "address"
        },
        {
          "internalType": "address",
          "name": "_spender",
          "type": "address"
        },
        {
          "internalType": "uint256",
          "name": "_value",
          "type": "uint256"
        }
      ],
      "name": "approve",
      "outputs": [],
      "stateMutability": "nonpayable",
      "type": "function"
    },
    {
      "inputs": [
        {
          "internalType": "address",
          "name": "_asset",
          "type": "address"
        },
        {
          "internalType": "address",
          "name": "_spender",
          "type": "address"
        }
      ],
      "name": "approveMax",
      "outputs": [],
      "stateMutability": "nonpayable",
      "type": "function"
    },
    {
      "inputs": [],
      "name": "fee",
      "outputs": [
        {
          "internalType": "uint256",
          "name": "",
          "type": "uint256"
        }
      ],
      "stateMutability": "view",
      "type": "function"
    },
    {
      "inputs": [
        {
          "internalType": "bytes",
          "name": "signature",
          "type": "bytes"
        }
      ],
      "name": "getHashFromSignature",
      "outputs": [
        {
          "internalType": "bytes32",
          "name": "",
          "type": "bytes32"
        }
      ],
      "stateMutability": "view",
      "type": "function"
    },
    {
      "inputs": [
        {
          "internalType": "address",
          "name": "_user",
          "type": "address"
        }
      ],
      "name": "getHealthFactor",
      "outputs": [
        {
          "internalType": "uint256",
          "name": "",
          "type": "uint256"
        }
      ],
      "stateMutability": "view",
      "type": "function"
    },
    {
      "inputs": [
        {
          "internalType": "uint256",
          "name": "orderTakerAmount",
          "type": "uint256"
        },
        {
          "internalType": "uint256",
          "name": "orderTakerAmountThreshold",
          "type": "uint256"
        },
        {
          "internalType": "address",
          "name": "debtAsset",
          "type": "address"
        },
        {
          "internalType": "address",
          "name": "collateralAsset",
          "type": "address"
        },
        {
          "internalType": "uint256",
          "name": "collateralBonus",
          "type": "uint256"
        },
        {
          "internalType": "uint256",
          "name": "debtReserveDecimals",
          "type": "uint256"
        },
        {
          "internalType": "uint256",
          "name": "collateralReserveDecimals",
          "type": "uint256"
        },
        {
          "internalType": "uint256",
          "name": "swapTakerAmount",
          "type": "uint256"
        }
      ],
      "name": "getMakerAmount",
      "outputs": [
        {
          "internalType": "uint256",
          "name": "",
          "type": "uint256"
        }
      ],
      "stateMutability": "view",
      "type": "function"
    },
    {
      "inputs": [
        {
          "components": [
            {
              "internalType": "uint256",
              "name": "salt",
              "type": "uint256"
            },
            {
              "internalType": "address",
              "name": "makerAsset",
              "type": "address"
            },
            {
              "internalType": "address",
              "name": "takerAsset",
              "type": "address"
            },
            {
              "internalType": "address",
              "name": "maker",
              "type": "address"
            },
            {
              "internalType": "address",
              "name": "receiver",
              "type": "address"
            },
            {
              "internalType": "address",
              "name": "allowedSender",
              "type": "address"
            },
            {
              "internalType": "uint256",
              "name": "makingAmount",
              "type": "uint256"
            },
            {
              "internalType": "uint256",
              "name": "takingAmount",
              "type": "uint256"
            }
          ],
          "internalType": "struct LimitOrderProtocolBase.StaticOrder",
          "name": "staticOrder",
          "type": "tuple"
        },
        {
          "internalType": "bytes",
          "name": "makerAssetData",
          "type": "bytes"
        },
        {
          "internalType": "bytes",
          "name": "takerAssetData",
          "type": "bytes"
        },
        {
          "internalType": "bytes",
          "name": "getMakerAmount",
          "type": "bytes"
        },
        {
          "internalType": "bytes",
          "name": "getTakerAmount",
          "type": "bytes"
        },
        {
          "internalType": "bytes",
          "name": "predicate",
          "type": "bytes"
        },
        {
          "internalType": "bytes",
          "name": "permit",
          "type": "bytes"
        },
        {
          "internalType": "bytes",
          "name": "interaction",
          "type": "bytes"
        }
      ],
      "name": "hashOrder",
      "outputs": [
        {
          "internalType": "bytes32",
          "name": "",
          "type": "bytes32"
        }
      ],
      "stateMutability": "view",
      "type": "function"
    },
    {
      "inputs": [
        {
          "internalType": "address",
          "name": "_user",
          "type": "address"
        },
        {
          "internalType": "uint256",
          "name": "_threshold",
          "type": "uint256"
        }
      ],
      "name": "isHFBelowThreshold",
      "outputs": [
        {
          "internalType": "bool",
          "name": "",
          "type": "bool"
        }
      ],
      "stateMutability": "view",
      "type": "function"
    },
    {
      "inputs": [
        {
          "internalType": "bytes32",
          "name": "hash",
          "type": "bytes32"
        },
        {
          "internalType": "bytes",
          "name": "signature",
          "type": "bytes"
        }
      ],
      "name": "isValidSignature",
      "outputs": [
        {
          "internalType": "bytes4",
          "name": "",
          "type": "bytes4"
        }
      ],
      "stateMutability": "view",
      "type": "function"
    },
    {
      "inputs": [
        {
          "internalType": "address",
          "name": "",
          "type": "address"
        },
        {
          "internalType": "address",
          "name": "makerAsset",
          "type": "address"
        },
        {
          "internalType": "address",
          "name": "takerAsset",
          "type": "address"
        },
        {
          "internalType": "uint256",
          "name": "makingAmount",
          "type": "uint256"
        },
        {
          "internalType": "uint256",
          "name": "takingAmount",
          "type": "uint256"
        },
        {
          "internalType": "bytes",
          "name": "interactiveData",
          "type": "bytes"
        }
      ],
      "name": "notifyFillOrder",
      "outputs": [],
      "stateMutability": "nonpayable",
      "type": "function"
    },
    {
      "inputs": [],
      "name": "owner",
      "outputs": [
        {
          "internalType": "address",
          "name": "",
          "type": "address"
        }
      ],
      "stateMutability": "view",
      "type": "function"
    },
    {
      "inputs": [
        {
          "internalType": "bytes",
          "name": "signature",
          "type": "bytes"
        }
      ],
      "name": "readSignature",
      "outputs": [
        {
          "internalType": "uint256",
          "name": "",
          "type": "uint256"
        }
      ],
      "stateMutability": "pure",
      "type": "function"
    },
    {
      "inputs": [
        {
          "internalType": "bytes",
          "name": "signature",
          "type": "bytes"
        }
      ],
      "name": "readStaticOrder",
      "outputs": [
        {
          "components": [
            {
              "internalType": "uint256",
              "name": "salt",
              "type": "uint256"
            },
            {
              "internalType": "address",
              "name": "makerAsset",
              "type": "address"
            },
            {
              "internalType": "address",
              "name": "takerAsset",
              "type": "address"
            },
            {
              "internalType": "address",
              "name": "maker",
              "type": "address"
            },
            {
              "internalType": "address",
              "name": "receiver",
              "type": "address"
            },
            {
              "internalType": "address",
              "name": "allowedSender",
              "type": "address"
            },
            {
              "internalType": "uint256",
              "name": "makingAmount",
              "type": "uint256"
            },
            {
              "internalType": "uint256",
              "name": "takingAmount",
              "type": "uint256"
            }
          ],
          "internalType": "struct LimitOrderProtocolBase.StaticOrder",
          "name": "",
          "type": "tuple"
        }
      ],
      "stateMutability": "pure",
      "type": "function"
    },
    {
      "inputs": [],
      "name": "renounceOwnership",
      "outputs": [],
      "stateMutability": "nonpayable",
      "type": "function"
    },
    {
      "inputs": [
        {
          "internalType": "uint256",
          "name": "_newFee",
          "type": "uint256"
        }
      ],
      "name": "setFee",
      "outputs": [],
      "stateMutability": "nonpayable",
      "type": "function"
    },
    {
      "inputs": [
        {
          "internalType": "address",
          "name": "_asset",
          "type": "address"
        },
        {
          "internalType": "address",
          "name": "_to",
          "type": "address"
        },
        {
          "internalType": "uint256",
          "name": "_value",
          "type": "uint256"
        }
      ],
      "name": "transfer",
      "outputs": [],
      "stateMutability": "nonpayable",
      "type": "function"
    },
    {
      "inputs": [
        {
          "internalType": "address",
          "name": "newOwner",
          "type": "address"
        }
      ],
      "name": "transferOwnership",
      "outputs": [],
      "stateMutability": "nonpayable",
      "type": "function"
    }
  ],
  "bytecode": "0x6101c06040523480156200001257600080fd5b5060405162001dc738038062001dc7833981016040819052620000359162000259565b604080518082018252601a81527f31696e6368204c696d6974204f726465722050726f746f636f6c0000000000006020808301918252835180850190945260018452601960f91b90840152815190206001600160a01b0386166101205260c08190527fad7c5bef027816a800da1736444fb58a807ef4c9603b7848673f7e3a68eb14a560e08190524660a05285938593889384939192917f8b73c3c69bb8fe3d512ecc4cf759cc79239f7b179b0ffacaa9a75d522b39400f6200014281848489604080516020808201969096528082019490945260608401929092524660808401526001600160a01b031660a0808401919091528151808403909101815260c09092019052805191012090565b608052610100525050506001600160a01b03928316610140525050821661016081905260408051630261bf8b60e01b81529051630261bf8b916004808201926020929091908290030181865afa158015620001a1573d6000803e3d6000fd5b505050506040513d601f19601f82011682018060405250810190620001c79190620002ad565b6001600160a01b0390811661018052166101a05250620001e733620001f0565b505050620002d4565b600080546001600160a01b038381166001600160a01b0319831681178455604051919092169283917f8be0079c531659141344cd1fd0a4f28419497f9722a3daafe3b4186f6b6457e09190a35050565b6001600160a01b03811681146200025657600080fd5b50565b6000806000606084860312156200026f57600080fd5b83516200027c8162000240565b60208501519093506200028f8162000240565b6040850151909250620002a28162000240565b809150509250925092565b600060208284031215620002c057600080fd5b8151620002cd8162000240565b9392505050565b60805160a05160c05160e05161010051610120516101405161016051610180516101a051611a4d6200037a600039600081816101ff01528181610eb40152610f44015260008181610344015281816106c101528181610cfd0152611092015260006101c001526000818161037e0152610a4c01526000610e4501526000610dca01526000610e1901526000610df401526000610d7801526000610da10152611a4d6000f3fe608060405234801561001057600080fd5b506004361061018d5760003560e01c8063715018a6116100e3578063cf21c7751161008c578063e1f21c6711610066578063e1f21c67146103cf578063f2fde38b146103e2578063fe6bcd7c146103f557600080fd5b8063cf21c775146103a0578063dc7e3b38146103b3578063ddca3f43146103c657600080fd5b8063b4dcfc77116100bd578063b4dcfc771461033f578063beabacc814610366578063c14593841461037957600080fd5b8063715018a6146103135780638da5cb5b1461031b578063aec42a171461032c57600080fd5b80633717a1b91161014557806354dd5f741161011f57806354dd5f74146102c457806369fe0e2d146102eb5780636c7fee3e1461030057600080fd5b80633717a1b91461027b5780635295b5111461028e5780635410c2e1146102a157600080fd5b806313f8bf671161017657806313f8bf67146101fa5780631626ba7e146102215780633644e5151461026557600080fd5b806301801e7c146101925780630542975c146101bb575b600080fd5b6101a56101a03660046112a1565b610408565b6040516101b291906112de565b60405180910390f35b6101e27f000000000000000000000000000000000000000000000000000000000000000081565b6040516001600160a01b0390911681526020016101b2565b6101e27f000000000000000000000000000000000000000000000000000000000000000081565b61023461022f36600461134b565b6104d7565b6040517fffffffff0000000000000000000000000000000000000000000000000000000090911681526020016101b2565b61026d6105cf565b6040519081526020016101b2565b61026d6102893660046112a1565b6105de565b61026d61029c3660046113ae565b6105f5565b6102b46102af366004611418565b61069d565b60405190151581526020016101b2565b61026d7f7b63e94209420c4f6a2a8ca90b36938c948908697db47a5dc7f8e692ead4991a81565b6102fe6102f9366004611442565b61073b565b005b61026d61030e3660046112a1565b61079a565b6102fe61081b565b6000546001600160a01b03166101e2565b6102fe61033a36600461145b565b610881565b6101e27f000000000000000000000000000000000000000000000000000000000000000081565b6102fe61037436600461148e565b610954565b6101e27f000000000000000000000000000000000000000000000000000000000000000081565b6102fe6103ae3660046114ca565b610a41565b61026d6103c1366004611635565b610ad6565b61026d60015481565b6102fe6103dd36600461148e565b610b68565b6102fe6103f0366004611769565b610bf7565b61026d610403366004611769565b610cd9565b604080516101008082018352600080835260208084018290528385018290526060808501839052608080860184905260a080870185905260c080880186905260e097880186905288518088018a52868152948501868152858a018781528686018881528786018981528886018a81528986018b81528a8e019b8c529d8f0151988f0151978f0151968f0151958f01519c8f01519b8f0151610120909f0151988a526001600160a01b03978816909452948616909152918416909152968216905290931690935293909252915290565b6000806104e383610408565b6101408401516101608501516101808601516101a08701516101c08801516101e08901516102008a0151969750948901604090810196948a01810195938a01810194928a01810193918a01810192918a018101918a01018a61054b8989898989898989610ad6565b1461059d5760405162461bcd60e51b815260206004820152601560248201527f4c697175696461746f723a20626164206f72646572000000000000000000000060448201526064015b60405180910390fd5b507f1626ba7e000000000000000000000000000000000000000000000000000000009750505050505050505b92915050565b60006105d9610d74565b905090565b6000806105ea83610408565b60e001519392505050565b60008782101561066d5760405162461bcd60e51b815260206004820152603260248201527f4c697175696461746f723a2074616b657220616d6f756e742073686f756c642060448201527f62652061626f7665207468726573686f6c6400000000000000000000000000006064820152608401610594565b8861067c8a8989898989610e90565b610686908461179a565b61069091906117b9565b9998505050505050505050565b604051632fe4a15f60e21b81526001600160a01b03838116600483015260009182917f0000000000000000000000000000000000000000000000000000000000000000169063bf92857c9060240160c060405180830381865afa158015610708573d6000803e3d6000fd5b505050506040513d601f19601f8201168201806040525081019061072c91906117db565b90971198975050505050505050565b6000546001600160a01b031633146107955760405162461bcd60e51b815260206004820181905260248201527f4f776e61626c653a2063616c6c6572206973206e6f7420746865206f776e65726044820152606401610594565b600155565b6000806107a683610408565b6101408401516101608501516101808601516101a08701516101c08801516101e08901516102008a0151969750948901604090810196948a01810195938a01810194928a01810193918a01810192918a018101918a010161080d8888888888888888610ad6565b9a9950505050505050505050565b6000546001600160a01b031633146108755760405162461bcd60e51b815260206004820181905260248201527f4f776e61626c653a2063616c6c6572206973206e6f7420746865206f776e65726044820152606401610594565b61087f6000610fd4565b565b6000546001600160a01b031633146108db5760405162461bcd60e51b815260206004820181905260248201527f4f776e61626c653a2063616c6c6572206973206e6f7420746865206f776e65726044820152606401610594565b60405163095ea7b360e01b81526001600160a01b038281166004830152600019602483015283169063095ea7b3906044016020604051808303816000875af115801561092b573d6000803e3d6000fd5b505050506040513d601f19601f8201168201806040525081019061094f9190611825565b505050565b6000546001600160a01b031633146109ae5760405162461bcd60e51b815260206004820181905260248201527f4f776e61626c653a2063616c6c6572206973206e6f7420746865206f776e65726044820152606401610594565b6040517fa9059cbb0000000000000000000000000000000000000000000000000000000081526001600160a01b0383811660048301526024820183905284169063a9059cbb906044015b6020604051808303816000875af1158015610a17573d6000803e3d6000fd5b505050506040513d601f19601f82011682018060405250810190610a3b9190611825565b50505050565b336001600160a01b037f00000000000000000000000000000000000000000000000000000000000000001614610ab95760405162461bcd60e51b815260206004820152601a60248201527f6f6e6c79204c4f502063616e20657865632063616c6c6261636b0000000000006044820152606401610594565b813560601c610acc87878387600061103c565b5050505050505050565b60006106907f7b63e94209420c4f6a2a8ca90b36938c948908697db47a5dc7f8e692ead4991a8a8a805190602001208a805190602001208a805190602001208a805190602001208a805190602001208a805190602001208a80519060200120604051602001610b4d99989796959493929190611847565b604051602081830303815290604052805190602001206110f4565b6000546001600160a01b03163314610bc25760405162461bcd60e51b815260206004820181905260248201527f4f776e61626c653a2063616c6c6572206973206e6f7420746865206f776e65726044820152606401610594565b60405163095ea7b360e01b81526001600160a01b0383811660048301526024820183905284169063095ea7b3906044016109f8565b6000546001600160a01b03163314610c515760405162461bcd60e51b815260206004820181905260248201527f4f776e61626c653a2063616c6c6572206973206e6f7420746865206f776e65726044820152606401610594565b6001600160a01b038116610ccd5760405162461bcd60e51b815260206004820152602660248201527f4f776e61626c653a206e6577206f776e657220697320746865207a65726f206160448201527f64647265737300000000000000000000000000000000000000000000000000006064820152608401610594565b610cd681610fd4565b50565b604051632fe4a15f60e21b81526001600160a01b03828116600483015260009182917f0000000000000000000000000000000000000000000000000000000000000000169063bf92857c9060240160c060405180830381865afa158015610d44573d6000803e3d6000fd5b505050506040513d601f19601f82011682018060405250810190610d6891906117db565b98975050505050505050565b60007f0000000000000000000000000000000000000000000000000000000000000000461415610dc357507f000000000000000000000000000000000000000000000000000000000000000090565b50604080517f00000000000000000000000000000000000000000000000000000000000000006020808301919091527f0000000000000000000000000000000000000000000000000000000000000000828401527f000000000000000000000000000000000000000000000000000000000000000060608301524660808301527f00000000000000000000000000000000000000000000000000000000000000006001600160a01b031660a0808401919091528351808403909101815260c0909201909252805191012090565b60405163b3596f0760e01b81526001600160a01b03868116600483015260009182917f0000000000000000000000000000000000000000000000000000000000000000169063b3596f0790602401602060405180830381865afa158015610efb573d6000803e3d6000fd5b505050506040513d601f19601f82011682018060405250810190610f1f91906118f7565b60405163b3596f0760e01b81526001600160a01b0388811660048301529192506000917f0000000000000000000000000000000000000000000000000000000000000000169063b3596f0790602401602060405180830381865afa158015610f8b573d6000803e3d6000fd5b505050506040513d601f19601f82011682018060405250810190610faf91906118f7565b9050610690612710610fce88610fc88d87878b8d61115d565b90611181565b90611194565b600080546001600160a01b038381167fffffffffffffffffffffffff0000000000000000000000000000000000000000831681178455604051919092169283917f8be0079c531659141344cd1fd0a4f28419497f9722a3daafe3b4186f6b6457e09190a35050565b6040517ea718a90000000000000000000000000000000000000000000000000000000081526001600160a01b038681166004830152858116602483015284811660448301526064820184905282151560848301527f0000000000000000000000000000000000000000000000000000000000000000169062a718a99060a401600060405180830381600087803b1580156110d557600080fd5b505af11580156110e9573d6000803e3d6000fd5b505050505050505050565b60006105c9611101610d74565b836040517f19010000000000000000000000000000000000000000000000000000000000006020820152602281018390526042810182905260009060620160405160208183030381529060405280519060200120905092915050565b600061117784610fce6111708989611181565b86866111a0565b9695505050505050565b600061118d828461179a565b9392505050565b600061118d82846117b9565b6000818314156111b157508261118d565b818311156111df576111d86111c68385611910565b6111d190600a611a0b565b8590611181565b905061118d565b6111d86111ec8484611910565b6111f790600a611a0b565b8590611194565b634e487b7160e01b600052604160045260246000fd5b600082601f83011261122557600080fd5b813567ffffffffffffffff80821115611240576112406111fe565b604051601f8301601f19908116603f01168101908282118183101715611268576112686111fe565b8160405283815286602085880101111561128157600080fd5b836020870160208301376000602085830101528094505050505092915050565b6000602082840312156112b357600080fd5b813567ffffffffffffffff8111156112ca57600080fd5b6112d684828501611214565b949350505050565b61010081016105c982848051825260208101516001600160a01b0380821660208501528060408401511660408501528060608401511660608501528060808401511660808501528060a08401511660a0850152505060c081015160c083015260e081015160e08301525050565b6000806040838503121561135e57600080fd5b82359150602083013567ffffffffffffffff81111561137c57600080fd5b61138885828601611214565b9150509250929050565b80356001600160a01b03811681146113a957600080fd5b919050565b600080600080600080600080610100898b0312156113cb57600080fd5b88359750602089013596506113e260408a01611392565b95506113f060608a01611392565b979a969950949760808101359660a0820135965060c0820135955060e0909101359350915050565b6000806040838503121561142b57600080fd5b61143483611392565b946020939093013593505050565b60006020828403121561145457600080fd5b5035919050565b6000806040838503121561146e57600080fd5b61147783611392565b915061148560208401611392565b90509250929050565b6000806000606084860312156114a357600080fd5b6114ac84611392565b92506114ba60208501611392565b9150604084013590509250925092565b600080600080600080600060c0888a0312156114e557600080fd5b6114ee88611392565b96506114fc60208901611392565b955061150a60408901611392565b9450606088013593506080880135925060a088013567ffffffffffffffff8082111561153557600080fd5b818a0191508a601f83011261154957600080fd5b81358181111561155857600080fd5b8b602082850101111561156a57600080fd5b60208301945080935050505092959891949750929550565b600061010080838503121561159657600080fd5b6040519081019067ffffffffffffffff821181831017156115b9576115b96111fe565b81604052809250833581526115d060208501611392565b60208201526115e160408501611392565b60408201526115f260608501611392565b606082015261160360808501611392565b608082015261161460a08501611392565b60a082015260c084013560c082015260e084013560e0820152505092915050565b6000806000806000806000806101e0898b03121561165257600080fd5b61165c8a8a611582565b975061010089013567ffffffffffffffff8082111561167a57600080fd5b6116868c838d01611214565b98506101208b013591508082111561169d57600080fd5b6116a98c838d01611214565b97506101408b01359150808211156116c057600080fd5b6116cc8c838d01611214565b96506101608b01359150808211156116e357600080fd5b6116ef8c838d01611214565b95506101808b013591508082111561170657600080fd5b6117128c838d01611214565b94506101a08b013591508082111561172957600080fd5b6117358c838d01611214565b93506101c08b013591508082111561174c57600080fd5b506117598b828c01611214565b9150509295985092959890939650565b60006020828403121561177b57600080fd5b61118d82611392565b634e487b7160e01b600052601160045260246000fd5b60008160001904831182151516156117b4576117b4611784565b500290565b6000826117d657634e487b7160e01b600052601260045260246000fd5b500490565b60008060008060008060c087890312156117f457600080fd5b865195506020870151945060408701519350606087015192506080870151915060a087015190509295509295509295565b60006020828403121561183757600080fd5b8151801515811461118d57600080fd5b89815261020081016118ba602083018b8051825260208101516001600160a01b0380821660208501528060408401511660408501528060608401511660608501528060808401511660808501528060a08401511660a0850152505060c081015160c083015260e081015160e08301525050565b6101208201989098526101408101969096526101608601949094526101808501929092526101a08401526101c08301526101e09091015292915050565b60006020828403121561190957600080fd5b5051919050565b60008282101561192257611922611784565b500390565b600181815b8085111561196257816000190482111561194857611948611784565b8085161561195557918102915b93841c939080029061192c565b509250929050565b600082611979575060016105c9565b81611986575060006105c9565b816001811461199c57600281146119a6576119c2565b60019150506105c9565b60ff8411156119b7576119b7611784565b50506001821b6105c9565b5060208310610133831016604e8410600b84101617156119e5575081810a6105c9565b6119ef8383611927565b8060001904821115611a0357611a03611784565b029392505050565b600061118d838361196a56fea2646970667358221220f36cef029c102263fb71eb1a9c3131bd65b78a658c540f875c8b5b5ea81b4d8b64736f6c634300080b0033",
  "linkReferences": {},
  "deployedLinkReferences": {}
}