{
  "_format": "hh-sol-artifact-1",
  "contractName": "Liquidator",
  "sourceName": "contracts/Liquidator.sol",
  "abi": [
    {
      "inputs": [
        {
          "internalType": "address",
          "name": "limitOrderProtocol",
          "type": "address"
        },
        {
          "internalType": "contract ILendingPoolAddressesProvider",
          "name": "_lendingPoolAddressProvider",
          "type": "address"
        },
        {
          "internalType": "contract IPriceOracleGetter",
          "name": "_aaveOracleAddress",
          "type": "address"
        }
      ],
      "stateMutability": "nonpayable",
      "type": "constructor"
    },
    {
      "anonymous": false,
      "inputs": [
        {
          "indexed": true,
          "internalType": "address",
          "name": "previousOwner",
          "type": "address"
        },
        {
          "indexed": true,
          "internalType": "address",
          "name": "newOwner",
          "type": "address"
        }
      ],
      "name": "OwnershipTransferred",
      "type": "event"
    },
    {
      "inputs": [],
      "name": "AAVE_ORACLE",
      "outputs": [
        {
          "internalType": "contract IPriceOracleGetter",
          "name": "",
          "type": "address"
        }
      ],
      "stateMutability": "view",
      "type": "function"
    },
    {
      "inputs": [],
      "name": "ADDRESSES_PROVIDER",
      "outputs": [
        {
          "internalType": "contract ILendingPoolAddressesProvider",
          "name": "",
          "type": "address"
        }
      ],
      "stateMutability": "view",
      "type": "function"
    },
    {
      "inputs": [],
      "name": "LENDING_POOL",
      "outputs": [
        {
          "internalType": "contract ILendingPool",
          "name": "",
          "type": "address"
        }
      ],
      "stateMutability": "view",
      "type": "function"
    },
    {
      "inputs": [],
      "name": "LIMIT_ORDER_PROTOCOL",
      "outputs": [
        {
          "internalType": "address",
          "name": "",
          "type": "address"
        }
      ],
      "stateMutability": "view",
      "type": "function"
    },
    {
      "inputs": [],
      "name": "LIMIT_ORDER_TYPEHASH",
      "outputs": [
        {
          "internalType": "bytes32",
          "name": "",
          "type": "bytes32"
        }
      ],
      "stateMutability": "view",
      "type": "function"
    },
    {
      "inputs": [
        {
          "internalType": "address",
          "name": "_asset",
          "type": "address"
        },
        {
          "internalType": "address",
          "name": "_spender",
          "type": "address"
        },
        {
          "internalType": "uint256",
          "name": "_value",
          "type": "uint256"
        }
      ],
      "name": "approve",
      "outputs": [],
      "stateMutability": "nonpayable",
      "type": "function"
    },
    {
      "inputs": [
        {
          "internalType": "address",
          "name": "_asset",
          "type": "address"
        },
        {
          "internalType": "address",
          "name": "_spender",
          "type": "address"
        }
      ],
      "name": "approveMax",
      "outputs": [],
      "stateMutability": "nonpayable",
      "type": "function"
    },
    {
      "inputs": [],
      "name": "fee",
      "outputs": [
        {
          "internalType": "uint256",
          "name": "",
          "type": "uint256"
        }
      ],
      "stateMutability": "view",
      "type": "function"
    },
    {
      "inputs": [
        {
          "internalType": "address",
          "name": "_user",
          "type": "address"
        }
      ],
      "name": "getHealthFactor",
      "outputs": [
        {
          "internalType": "uint256",
          "name": "",
          "type": "uint256"
        }
      ],
      "stateMutability": "view",
      "type": "function"
    },
    {
      "inputs": [
        {
          "internalType": "uint256",
          "name": "orderMakerAmount",
          "type": "uint256"
        },
        {
          "internalType": "uint256",
          "name": "orderTakerAmount",
          "type": "uint256"
        },
        {
          "internalType": "uint256",
          "name": "swapTakerAmount",
          "type": "uint256"
        }
      ],
      "name": "getMakerAmount",
      "outputs": [
        {
          "internalType": "uint256",
          "name": "",
          "type": "uint256"
        }
      ],
      "stateMutability": "view",
      "type": "function"
    },
    {
      "inputs": [
        {
          "internalType": "address",
          "name": "_user",
          "type": "address"
        },
        {
          "internalType": "uint256",
          "name": "_threshold",
          "type": "uint256"
        }
      ],
      "name": "isHFBelowThreshold",
      "outputs": [
        {
          "internalType": "bool",
          "name": "",
          "type": "bool"
        }
      ],
      "stateMutability": "view",
      "type": "function"
    },
    {
      "inputs": [
        {
          "internalType": "bytes32",
          "name": "hash",
          "type": "bytes32"
        },
        {
          "internalType": "bytes",
          "name": "signature",
          "type": "bytes"
        }
      ],
      "name": "isValidSignature",
      "outputs": [
        {
          "internalType": "bytes4",
          "name": "",
          "type": "bytes4"
        }
      ],
      "stateMutability": "view",
      "type": "function"
    },
    {
      "inputs": [
        {
          "internalType": "address",
          "name": "makerAsset",
          "type": "address"
        },
        {
          "internalType": "address",
          "name": "takerAsset",
          "type": "address"
        },
        {
          "internalType": "uint256",
          "name": "makingAmount",
          "type": "uint256"
        },
        {
          "internalType": "uint256",
          "name": "takingAmount",
          "type": "uint256"
        },
        {
          "internalType": "bytes",
          "name": "interactiveData",
          "type": "bytes"
        }
      ],
      "name": "notifyFillOrder",
      "outputs": [],
      "stateMutability": "nonpayable",
      "type": "function"
    },
    {
      "inputs": [
        {
          "internalType": "address",
          "name": "",
          "type": "address"
        },
        {
          "internalType": "uint256",
          "name": "",
          "type": "uint256"
        }
      ],
      "name": "orders",
      "outputs": [
        {
          "internalType": "uint256",
          "name": "salt",
          "type": "uint256"
        },
        {
          "internalType": "address",
          "name": "makerAsset",
          "type": "address"
        },
        {
          "internalType": "address",
          "name": "takerAsset",
          "type": "address"
        },
        {
          "internalType": "bytes",
          "name": "makerAssetData",
          "type": "bytes"
        },
        {
          "internalType": "bytes",
          "name": "takerAssetData",
          "type": "bytes"
        },
        {
          "internalType": "bytes",
          "name": "getMakerAmount",
          "type": "bytes"
        },
        {
          "internalType": "bytes",
          "name": "getTakerAmount",
          "type": "bytes"
        },
        {
          "internalType": "bytes",
          "name": "predicate",
          "type": "bytes"
        },
        {
          "internalType": "bytes",
          "name": "permit",
          "type": "bytes"
        },
        {
          "internalType": "bytes",
          "name": "interaction",
          "type": "bytes"
        }
      ],
      "stateMutability": "view",
      "type": "function"
    },
    {
      "inputs": [],
      "name": "owner",
      "outputs": [
        {
          "internalType": "address",
          "name": "",
          "type": "address"
        }
      ],
      "stateMutability": "view",
      "type": "function"
    },
    {
      "inputs": [],
      "name": "renounceOwnership",
      "outputs": [],
      "stateMutability": "nonpayable",
      "type": "function"
    },
    {
      "inputs": [
        {
          "internalType": "uint256",
          "name": "_newFee",
          "type": "uint256"
        }
      ],
      "name": "setFee",
      "outputs": [],
      "stateMutability": "nonpayable",
      "type": "function"
    },
    {
      "inputs": [
        {
          "internalType": "address",
          "name": "_asset",
          "type": "address"
        },
        {
          "internalType": "address",
          "name": "_to",
          "type": "address"
        },
        {
          "internalType": "uint256",
          "name": "_value",
          "type": "uint256"
        }
      ],
      "name": "transfer",
      "outputs": [],
      "stateMutability": "nonpayable",
      "type": "function"
    },
    {
      "inputs": [
        {
          "internalType": "address",
          "name": "newOwner",
          "type": "address"
        }
      ],
      "name": "transferOwnership",
      "outputs": [],
      "stateMutability": "nonpayable",
      "type": "function"
    }
  ],
  "bytecode": "0x6101c06040523480156200001257600080fd5b5060405162001d1038038062001d1083398101604081905262000035916200026d565b604080518082018252601a81527f31696e6368204c696d6974204f726465722050726f746f636f6c00000000000060208083019182528351808501855260018152603160f81b90820152915190206001600160601b0319606087811b821661012081905260c08481527fc89efdaa54c0f20c7adf612882df0950f5a951637e0307cdcb4c672f298b8bc660e08190524660a081815289517f8b73c3c69bb8fe3d512ecc4cf759cc79239f7b179b0ffacaa9a75d522b39400f818b01819052818c0199909952808701939093526080838101929092526001600160a01b03808e16848301528a518085039092018252938301808b528151918a019190912090915261010096909652610140929092529188901b90921661016052630261bf8b60e01b90925292518593859392851692630261bf8b9260c480840193829003018186803b1580156200018457600080fd5b505afa15801562000199573d6000803e3d6000fd5b505050506040513d601f19601f82011682018060405250810190620001bf919062000247565b6001600160601b0319606091821b81166101805291901b166101a05250620001ee620001e83390565b620001f7565b505050620002d9565b600080546001600160a01b038381166001600160a01b0319831681178455604051919092169283917f8be0079c531659141344cd1fd0a4f28419497f9722a3daafe3b4186f6b6457e09190a35050565b60006020828403121562000259578081fd5b81516200026681620002c0565b9392505050565b60008060006060848603121562000282578182fd5b83516200028f81620002c0565b6020850151909350620002a281620002c0565b6040850151909250620002b581620002c0565b809150509250925092565b6001600160a01b0381168114620002d657600080fd5b50565b60805160a05160c05160e051610100516101205160601c6101405160601c6101605160601c6101805160601c6101a05160601c61199062000380600039600061019f0152600081816102df0152818161055301528181610f4301526111190152600061015b01526000818161031901526104940152600061142c015260006113b101526000611400015260006113db0152600061135f0152600061138801526119906000f3fe608060405234801561001057600080fd5b50600436106101515760003560e01c80638da5cb5b116100cd578063ddca3f4311610081578063f2fde38b11610066578063f2fde38b14610357578063f4a215c31461036a578063fe6bcd7c1461037d57600080fd5b8063ddca3f431461033b578063e1f21c671461034457600080fd5b8063b4dcfc77116100b2578063b4dcfc77146102da578063beabacc814610301578063c14593841461031457600080fd5b80638da5cb5b146102b6578063aec42a17146102c757600080fd5b80635410c2e11161012457806369fe0e2d1161010957806369fe0e2d14610272578063715018a614610285578063793b8c6d1461028d57600080fd5b80635410c2e11461021a57806354dd5f741461023d57600080fd5b80630542975c1461015657806313f8bf671461019a5780631626ba7e146101c157806348705b8b14610205575b600080fd5b61017d7f000000000000000000000000000000000000000000000000000000000000000081565b6040516001600160a01b0390911681526020015b60405180910390f35b61017d7f000000000000000000000000000000000000000000000000000000000000000081565b6101d46101cf366004611674565b610390565b6040517fffffffff000000000000000000000000000000000000000000000000000000009091168152602001610191565b6102186102133660046115b5565b610489565b005b61022d610228366004611629565b61052f565b6040519015158152602001610191565b6102647ffa76738caa33f429c9819be9551680fe012078ffe06b83407d6b965125e8763681565b604051908152602001610191565b6102186102803660046116b9565b6105dc565b61021861063b565b6102a061029b366004611629565b6106a1565b6040516101919a999897969594939291906117c5565b6000546001600160a01b031661017d565b6102186102d536600461153d565b610ad3565b61017d7f000000000000000000000000000000000000000000000000000000000000000081565b61021861030f366004611575565b610bb5565b61017d7f000000000000000000000000000000000000000000000000000000000000000081565b61026460025481565b610218610352366004611575565b610cb1565b6102186103653660046114fe565b610d40565b6102646103783660046116d1565b610e22565b61026461038b3660046114fe565b610f1f565b6040818101516060830151608084015160a085015160c086015160e08701516101008801516101208901516101408a01516101608b015160009a968c01870196958c01860195948c01850194938c01840193928c01830192918c01820191908c01018c6104058b8b8b8b8b8b8b8b8b8b610fc9565b146104575760405162461bcd60e51b815260206004820152600960248201527f626164206f72646572000000000000000000000000000000000000000000000060448201526064015b60405180910390fd5b507f1626ba7e000000000000000000000000000000000000000000000000000000009c9b505050505050505050505050565b336001600160a01b037f000000000000000000000000000000000000000000000000000000000000000016146105015760405162461bcd60e51b815260206004820152601a60248201527f6f6e6c79204c4f502063616e20657865632063616c6c6261636b000000000000604482015260640161044e565b6000818060200190518101906105179190611521565b90506105278686838660006110c3565b505050505050565b604051632fe4a15f60e21b81526001600160a01b03838116600483015260009182917f0000000000000000000000000000000000000000000000000000000000000000169063bf92857c9060240160c06040518083038186803b15801561059557600080fd5b505afa1580156105a9573d6000803e3d6000fd5b505050506040513d601f19601f820116820180604052508101906105cd91906116fc565b90971198975050505050505050565b6000546001600160a01b031633146106365760405162461bcd60e51b815260206004820181905260248201527f4f776e61626c653a2063616c6c6572206973206e6f7420746865206f776e6572604482015260640161044e565b600255565b6000546001600160a01b031633146106955760405162461bcd60e51b815260206004820181905260248201527f4f776e61626c653a2063616c6c6572206973206e6f7420746865206f776e6572604482015260640161044e565b61069f600061117b565b565b600160205281600052604060002081815481106106bd57600080fd5b60009182526020909120600a909102018054600182015460028301546003840180549396506001600160a01b039283169550911692916106fc906118ce565b80601f0160208091040260200160405190810160405280929190818152602001828054610728906118ce565b80156107755780601f1061074a57610100808354040283529160200191610775565b820191906000526020600020905b81548152906001019060200180831161075857829003601f168201915b50505050509080600401805461078a906118ce565b80601f01602080910402602001604051908101604052809291908181526020018280546107b6906118ce565b80156108035780601f106107d857610100808354040283529160200191610803565b820191906000526020600020905b8154815290600101906020018083116107e657829003601f168201915b505050505090806005018054610818906118ce565b80601f0160208091040260200160405190810160405280929190818152602001828054610844906118ce565b80156108915780601f1061086657610100808354040283529160200191610891565b820191906000526020600020905b81548152906001019060200180831161087457829003601f168201915b5050505050908060060180546108a6906118ce565b80601f01602080910402602001604051908101604052809291908181526020018280546108d2906118ce565b801561091f5780601f106108f45761010080835404028352916020019161091f565b820191906000526020600020905b81548152906001019060200180831161090257829003601f168201915b505050505090806007018054610934906118ce565b80601f0160208091040260200160405190810160405280929190818152602001828054610960906118ce565b80156109ad5780601f10610982576101008083540402835291602001916109ad565b820191906000526020600020905b81548152906001019060200180831161099057829003601f168201915b5050505050908060080180546109c2906118ce565b80601f01602080910402602001604051908101604052809291908181526020018280546109ee906118ce565b8015610a3b5780601f10610a1057610100808354040283529160200191610a3b565b820191906000526020600020905b815481529060010190602001808311610a1e57829003601f168201915b505050505090806009018054610a50906118ce565b80601f0160208091040260200160405190810160405280929190818152602001828054610a7c906118ce565b8015610ac95780601f10610a9e57610100808354040283529160200191610ac9565b820191906000526020600020905b815481529060010190602001808311610aac57829003601f168201915b505050505090508a565b6000546001600160a01b03163314610b2d5760405162461bcd60e51b815260206004820181905260248201527f4f776e61626c653a2063616c6c6572206973206e6f7420746865206f776e6572604482015260640161044e565b60405163095ea7b360e01b81526001600160a01b038281166004830152600019602483015283169063095ea7b390604401602060405180830381600087803b158015610b7857600080fd5b505af1158015610b8c573d6000803e3d6000fd5b505050506040513d601f19601f82011682018060405250810190610bb09190611654565b505050565b6000546001600160a01b03163314610c0f5760405162461bcd60e51b815260206004820181905260248201527f4f776e61626c653a2063616c6c6572206973206e6f7420746865206f776e6572604482015260640161044e565b6040517fa9059cbb0000000000000000000000000000000000000000000000000000000081526001600160a01b0383811660048301526024820183905284169063a9059cbb906044015b602060405180830381600087803b158015610c7357600080fd5b505af1158015610c87573d6000803e3d6000fd5b505050506040513d601f19601f82011682018060405250810190610cab9190611654565b50505050565b6000546001600160a01b03163314610d0b5760405162461bcd60e51b815260206004820181905260248201527f4f776e61626c653a2063616c6c6572206973206e6f7420746865206f776e6572604482015260640161044e565b60405163095ea7b360e01b81526001600160a01b0383811660048301526024820183905284169063095ea7b390604401610c59565b6000546001600160a01b03163314610d9a5760405162461bcd60e51b815260206004820181905260248201527f4f776e61626c653a2063616c6c6572206973206e6f7420746865206f776e6572604482015260640161044e565b6001600160a01b038116610e165760405162461bcd60e51b815260206004820152602660248201527f4f776e61626c653a206e6577206f776e657220697320746865207a65726f206160448201527f6464726573730000000000000000000000000000000000000000000000000000606482015260840161044e565b610e1f8161117b565b50565b6000610e45604051806060016040528060268152602001611935602691396111e3565b610e846040518060400160405280600f81526020017f7377617054616b6572416d6f756e74000000000000000000000000000000000081525083611254565b610ec36040518060400160405280601081526020017f6f726465724d616b6572416d6f756e740000000000000000000000000000000081525085611254565b610f026040518060400160405280601081526020017f6f7264657254616b6572416d6f756e740000000000000000000000000000000081525084611254565b82610f0d85846118a3565b610f179190611883565b949350505050565b604051632fe4a15f60e21b81526001600160a01b03828116600483015260009182917f0000000000000000000000000000000000000000000000000000000000000000169063bf92857c9060240160c06040518083038186803b158015610f8557600080fd5b505afa158015610f99573d6000803e3d6000fd5b505050506040513d601f19601f82011682018060405250810190610fbd91906116fc565b98975050505050505050565b60006110b47ffa76738caa33f429c9819be9551680fe012078ffe06b83407d6b965125e876368c8c8c8c805190602001208c805190602001208c805190602001208c805190602001208c805190602001208c805190602001208c805190602001206040516020016110999b9a999897969594939291909a8b5260208b01999099526001600160a01b0397881660408b0152959096166060890152608088019390935260a087019190915260c086015260e08501526101008401919091526101208301526101408201526101600190565b604051602081830303815290604052805190602001206112cb565b9b9a5050505050505050505050565b6040517ea718a90000000000000000000000000000000000000000000000000000000081526001600160a01b038681166004830152858116602483015284811660448301526064820184905282151560848301527f0000000000000000000000000000000000000000000000000000000000000000169062a718a99060a401600060405180830381600087803b15801561115c57600080fd5b505af1158015611170573d6000803e3d6000fd5b505050505050505050565b600080546001600160a01b038381167fffffffffffffffffffffffff0000000000000000000000000000000000000000831681178455604051919092169283917f8be0079c531659141344cd1fd0a4f28419497f9722a3daafe3b4186f6b6457e09190a35050565b610e1f816040516024016111f79190611790565b60408051601f198184030181529190526020810180517bffffffffffffffffffffffffffffffffffffffffffffffffffffffff167f41304fac0000000000000000000000000000000000000000000000000000000017905261133a565b6112c7828260405160240161126a9291906117a3565b60408051601f198184030181529190526020810180517bffffffffffffffffffffffffffffffffffffffffffffffffffffffff167f9710a9d00000000000000000000000000000000000000000000000000000000017905261133a565b5050565b60006113346112d861135b565b836040517f19010000000000000000000000000000000000000000000000000000000000006020820152602281018390526042810182905260009060620160405160208183030381529060405280519060200120905092915050565b92915050565b80516a636f6e736f6c652e6c6f67602083016000808483855afa5050505050565b60007f00000000000000000000000000000000000000000000000000000000000000004614156113aa57507f000000000000000000000000000000000000000000000000000000000000000090565b50604080517f00000000000000000000000000000000000000000000000000000000000000006020808301919091527f0000000000000000000000000000000000000000000000000000000000000000828401527f000000000000000000000000000000000000000000000000000000000000000060608301524660808301527f00000000000000000000000000000000000000000000000000000000000000006001600160a01b031660a0808401919091528351808403909101815260c0909201909252805191012090565b600082601f830112611487578081fd5b813567ffffffffffffffff808211156114a2576114a2611909565b604051601f8301601f19908116603f011681019082821181831017156114ca576114ca611909565b816040528381528660208588010111156114e2578485fd5b8360208701602083013792830160200193909352509392505050565b60006020828403121561150f578081fd5b813561151a8161191f565b9392505050565b600060208284031215611532578081fd5b815161151a8161191f565b6000806040838503121561154f578081fd5b823561155a8161191f565b9150602083013561156a8161191f565b809150509250929050565b600080600060608486031215611589578081fd5b83356115948161191f565b925060208401356115a48161191f565b929592945050506040919091013590565b600080600080600060a086880312156115cc578081fd5b85356115d78161191f565b945060208601356115e78161191f565b93506040860135925060608601359150608086013567ffffffffffffffff811115611610578182fd5b61161c88828901611477565b9150509295509295909350565b6000806040838503121561163b578182fd5b82356116468161191f565b946020939093013593505050565b600060208284031215611665578081fd5b8151801515811461151a578182fd5b60008060408385031215611686578182fd5b82359150602083013567ffffffffffffffff8111156116a3578182fd5b6116af85828601611477565b9150509250929050565b6000602082840312156116ca578081fd5b5035919050565b6000806000606084860312156116e5578283fd5b505081359360208301359350604090920135919050565b60008060008060008060c08789031215611714578081fd5b865195506020870151945060408701519350606087015192506080870151915060a087015190509295509295509295565b60008151808452815b8181101561176a5760208185018101518683018201520161174e565b8181111561177b5782602083870101525b50601f01601f19169290920160200192915050565b60208152600061151a6020830184611745565b6040815260006117b66040830185611745565b90508260208301529392505050565b60006101408c83526001600160a01b03808d166020850152808c166040850152508060608401526117f88184018b611745565b9050828103608084015261180c818a611745565b905082810360a08401526118208189611745565b905082810360c08401526118348188611745565b905082810360e08401526118488187611745565b905082810361010084015261185d8186611745565b90508281036101208401526118728185611745565b9d9c50505050505050505050505050565b60008261189e57634e487b7160e01b81526012600452602481fd5b500490565b60008160001904831182151516156118c957634e487b7160e01b81526011600452602481fd5b500290565b600181811c908216806118e257607f821691505b6020821081141561190357634e487b7160e01b600052602260045260246000fd5b50919050565b634e487b7160e01b600052604160045260246000fd5b6001600160a01b0381168114610e1f57600080fdfe436f6d707574696e67206765744d616b6572416d6f756e7420696e204c697175696461746f72a264697066735822122016d43a2619794e2a8113ad4f8093c28517d9f980bee485716c5b9800675caa9364736f6c63430008040033",
  "linkReferences": {},
  "deployedLinkReferences": {}
}