{
  "_format": "hh-sol-artifact-1",
  "contractName": "Liquidator",
  "sourceName": "contracts/Liquidator.sol",
  "abi": [
    {
      "inputs": [
        {
          "internalType": "address",
          "name": "limitOrderProtocol",
          "type": "address"
        },
        {
          "internalType": "contract ILendingPoolAddressesProvider",
          "name": "_lendingPoolAddressProvider",
          "type": "address"
        }
      ],
      "stateMutability": "nonpayable",
      "type": "constructor"
    },
    {
      "anonymous": false,
      "inputs": [
        {
          "indexed": true,
          "internalType": "address",
          "name": "previousOwner",
          "type": "address"
        },
        {
          "indexed": true,
          "internalType": "address",
          "name": "newOwner",
          "type": "address"
        }
      ],
      "name": "OwnershipTransferred",
      "type": "event"
    },
    {
      "inputs": [],
      "name": "ADDRESSES_PROVIDER",
      "outputs": [
        {
          "internalType": "contract ILendingPoolAddressesProvider",
          "name": "",
          "type": "address"
        }
      ],
      "stateMutability": "view",
      "type": "function"
    },
    {
      "inputs": [],
      "name": "LENDING_POOL",
      "outputs": [
        {
          "internalType": "contract ILendingPool",
          "name": "",
          "type": "address"
        }
      ],
      "stateMutability": "view",
      "type": "function"
    },
    {
      "inputs": [],
      "name": "LIMIT_ORDER_PROTOCOL",
      "outputs": [
        {
          "internalType": "address",
          "name": "",
          "type": "address"
        }
      ],
      "stateMutability": "view",
      "type": "function"
    },
    {
      "inputs": [],
      "name": "LIMIT_ORDER_TYPEHASH",
      "outputs": [
        {
          "internalType": "bytes32",
          "name": "",
          "type": "bytes32"
        }
      ],
      "stateMutability": "view",
      "type": "function"
    },
    {
      "inputs": [
        {
          "internalType": "address",
          "name": "_user",
          "type": "address"
        }
      ],
      "name": "getHealthFactor",
      "outputs": [
        {
          "internalType": "uint256",
          "name": "",
          "type": "uint256"
        }
      ],
      "stateMutability": "view",
      "type": "function"
    },
    {
      "inputs": [
        {
          "internalType": "address",
          "name": "_user",
          "type": "address"
        }
      ],
      "name": "getUserAccountData",
      "outputs": [
        {
          "internalType": "uint256",
          "name": "totalCollateralETH",
          "type": "uint256"
        },
        {
          "internalType": "uint256",
          "name": "totalDebtETH",
          "type": "uint256"
        },
        {
          "internalType": "uint256",
          "name": "availableBorrowsETH",
          "type": "uint256"
        },
        {
          "internalType": "uint256",
          "name": "currentLiquidationThreshold",
          "type": "uint256"
        },
        {
          "internalType": "uint256",
          "name": "ltv",
          "type": "uint256"
        },
        {
          "internalType": "uint256",
          "name": "healthFactor",
          "type": "uint256"
        }
      ],
      "stateMutability": "view",
      "type": "function"
    },
    {
      "inputs": [
        {
          "internalType": "address",
          "name": "_user",
          "type": "address"
        },
        {
          "internalType": "uint256",
          "name": "_threshold",
          "type": "uint256"
        }
      ],
      "name": "isHFBelowThreshold",
      "outputs": [
        {
          "internalType": "bool",
          "name": "",
          "type": "bool"
        }
      ],
      "stateMutability": "view",
      "type": "function"
    },
    {
      "inputs": [
        {
          "internalType": "bytes32",
          "name": "hash",
          "type": "bytes32"
        },
        {
          "internalType": "bytes",
          "name": "signature",
          "type": "bytes"
        }
      ],
      "name": "isValidSignature",
      "outputs": [
        {
          "internalType": "bytes4",
          "name": "",
          "type": "bytes4"
        }
      ],
      "stateMutability": "view",
      "type": "function"
    },
    {
      "inputs": [
        {
          "internalType": "address",
          "name": "makerAsset",
          "type": "address"
        },
        {
          "internalType": "address",
          "name": "takerAsset",
          "type": "address"
        },
        {
          "internalType": "uint256",
          "name": "makingAmount",
          "type": "uint256"
        },
        {
          "internalType": "uint256",
          "name": "takingAmount",
          "type": "uint256"
        },
        {
          "internalType": "bytes",
          "name": "interactiveData",
          "type": "bytes"
        }
      ],
      "name": "notifyFillOrder",
      "outputs": [],
      "stateMutability": "nonpayable",
      "type": "function"
    },
    {
      "inputs": [],
      "name": "owner",
      "outputs": [
        {
          "internalType": "address",
          "name": "",
          "type": "address"
        }
      ],
      "stateMutability": "view",
      "type": "function"
    },
    {
      "inputs": [],
      "name": "renounceOwnership",
      "outputs": [],
      "stateMutability": "nonpayable",
      "type": "function"
    },
    {
      "inputs": [
        {
          "internalType": "address",
          "name": "newOwner",
          "type": "address"
        }
      ],
      "name": "transferOwnership",
      "outputs": [],
      "stateMutability": "nonpayable",
      "type": "function"
    }
  ],
  "bytecode": "0x6101a06040523480156200001257600080fd5b506040516200132038038062001320833981016040819052620000359162000260565b604080518082018252601a81527f31696e6368204c696d6974204f726465722050726f746f636f6c00000000000060208083019182528351808501855260018152603160f81b90820152915190206001600160601b0319606086811b821661012081905260c08481527fc89efdaa54c0f20c7adf612882df0950f5a951637e0307cdcb4c672f298b8bc660e08190524660a081815289517f8b73c3c69bb8fe3d512ecc4cf759cc79239f7b179b0ffacaa9a75d522b39400f818b01819052818c0199909952808701939093526080838101929092526001600160a01b03808d16848301528a518085039092018252938301808b528151918a019190912090915261010096909652610140929092529187901b90921661016052630261bf8b60e01b9092529251849391841692630261bf8b9260c48082019391829003018186803b1580156200018357600080fd5b505afa15801562000198573d6000803e3d6000fd5b505050506040513d601f19601f82011682018060405250810190620001be91906200023a565b60601b6001600160601b0319166101805250620001e2620001dc3390565b620001ea565b5050620002b7565b600080546001600160a01b038381166001600160a01b0319831681178455604051919092169283917f8be0079c531659141344cd1fd0a4f28419497f9722a3daafe3b4186f6b6457e09190a35050565b6000602082840312156200024c578081fd5b815162000259816200029e565b9392505050565b6000806040838503121562000273578081fd5b825162000280816200029e565b602084015190925062000293816200029e565b809150509250929050565b6001600160a01b0381168114620002b457600080fd5b50565b60805160a05160c05160e051610100516101205160601c6101405160601c6101605160601c6101805160601c610fc36200035d600039600081816101ec0152818161051501528181610630015281816107c40152818161095b0152610a880152600060de01526000818161025301526103c201526000610c9201526000610c1701526000610c6601526000610c4101526000610bc501526000610bee0152610fc36000f3fe608060405234801561001057600080fd5b50600436106100d45760003560e01c80638da5cb5b11610081578063c14593841161005b578063c14593841461024e578063f2fde38b14610275578063fe6bcd7c1461028857600080fd5b80638da5cb5b146101d6578063b4dcfc77146101e7578063bf92857c1461020e57600080fd5b80635410c2e1116100b25780635410c2e11461017657806354dd5f7414610199578063715018a6146101ce57600080fd5b80630542975c146100d95780631626ba7e1461011d57806348705b8b14610161575b600080fd5b6101007f000000000000000000000000000000000000000000000000000000000000000081565b6040516001600160a01b0390911681526020015b60405180910390f35b61013061012b366004610ebb565b61029b565b6040517fffffffff000000000000000000000000000000000000000000000000000000009091168152602001610114565b61017461016f366004610e02565b6103b7565b005b610189610184366004610e76565b6104f1565b6040519015158152602001610114565b6101c07ffa76738caa33f429c9819be9551680fe012078ffe06b83407d6b965125e8763681565b604051908152602001610114565b61017461059e565b6000546001600160a01b0316610100565b6101007f000000000000000000000000000000000000000000000000000000000000000081565b61022161021c366004610d79565b610604565b604080519687526020870195909552938501929092526060840152608083015260a082015260c001610114565b6101007f000000000000000000000000000000000000000000000000000000000000000081565b610174610283366004610d79565b6106be565b6101c0610296366004610d79565b6107a0565b6040818101516060830151608084015160a085015160c086015160e08701516101008801516101208901516101408a01516101608b015160009a968c01870196958c01860195948c01850194938c01840193928c01830192918c01820191908c01013061030e888d602002016024015190565b6001600160a01b031614801561033457508c6103328b8b8b8b8b8b8b8b8b8b61084a565b145b6103855760405162461bcd60e51b815260206004820152600960248201527f626164206f72646572000000000000000000000000000000000000000000000060448201526064015b60405180910390fd5b507f1626ba7e000000000000000000000000000000000000000000000000000000009c9b505050505050505050505050565b336001600160a01b037f0000000000000000000000000000000000000000000000000000000000000000161461042f5760405162461bcd60e51b815260206004820152601a60248201527f6f6e6c79204c4f502063616e20657865632063616c6c6261636b000000000000604482015260640161037c565b60008060008060008580602001905181019061044b9190610d9c565b9398509196509450925090506104648585858585610944565b60405163095ea7b360e01b8152336004820152602481018990526001600160a01b038b169063095ea7b390604401602060405180830381600087803b1580156104ac57600080fd5b505af11580156104c0573d6000803e3d6000fd5b505050506040513d601f19601f820116820180604052508101906104e49190610ea1565b5050505050505050505050565b604051632fe4a15f60e21b81526001600160a01b03838116600483015260009182917f0000000000000000000000000000000000000000000000000000000000000000169063bf92857c9060240160c06040518083038186803b15801561055757600080fd5b505afa15801561056b573d6000803e3d6000fd5b505050506040513d601f19601f8201168201806040525081019061058f9190610f00565b90971198975050505050505050565b6000546001600160a01b031633146105f85760405162461bcd60e51b815260206004820181905260248201527f4f776e61626c653a2063616c6c6572206973206e6f7420746865206f776e6572604482015260640161037c565b6106026000610aea565b565b604051632fe4a15f60e21b81526001600160a01b038281166004830152600091829182918291829182917f0000000000000000000000000000000000000000000000000000000000000000169063bf92857c9060240160c06040518083038186803b15801561067257600080fd5b505afa158015610686573d6000803e3d6000fd5b505050506040513d601f19601f820116820180604052508101906106aa9190610f00565b949c939b5091995097509550909350915050565b6000546001600160a01b031633146107185760405162461bcd60e51b815260206004820181905260248201527f4f776e61626c653a2063616c6c6572206973206e6f7420746865206f776e6572604482015260640161037c565b6001600160a01b0381166107945760405162461bcd60e51b815260206004820152602660248201527f4f776e61626c653a206e6577206f776e657220697320746865207a65726f206160448201527f6464726573730000000000000000000000000000000000000000000000000000606482015260840161037c565b61079d81610aea565b50565b604051632fe4a15f60e21b81526001600160a01b03828116600483015260009182917f0000000000000000000000000000000000000000000000000000000000000000169063bf92857c9060240160c06040518083038186803b15801561080657600080fd5b505afa15801561081a573d6000803e3d6000fd5b505050506040513d601f19601f8201168201806040525081019061083e9190610f00565b98975050505050505050565b60006109357ffa76738caa33f429c9819be9551680fe012078ffe06b83407d6b965125e876368c8c8c8c805190602001208c805190602001208c805190602001208c805190602001208c805190602001208c805190602001208c8051906020012060405160200161091a9b9a999897969594939291909a8b5260208b01999099526001600160a01b0397881660408b0152959096166060890152608088019390935260a087019190915260c086015260e08501526101008401919091526101208301526101408201526101600190565b60405160208183030381529060405280519060200120610b52565b9b9a5050505050505050505050565b60405163095ea7b360e01b81526001600160a01b037f0000000000000000000000000000000000000000000000000000000000000000811660048301526024820184905285169063095ea7b390604401602060405180830381600087803b1580156109ae57600080fd5b505af11580156109c2573d6000803e3d6000fd5b505050506040513d601f19601f820116820180604052508101906109e69190610ea1565b610a325760405162461bcd60e51b815260206004820152600e60248201527f417070726f76616c206572726f72000000000000000000000000000000000000604482015260640161037c565b6040517ea718a90000000000000000000000000000000000000000000000000000000081526001600160a01b038681166004830152858116602483015284811660448301526064820184905282151560848301527f0000000000000000000000000000000000000000000000000000000000000000169062a718a99060a401600060405180830381600087803b158015610acb57600080fd5b505af1158015610adf573d6000803e3d6000fd5b505050505050505050565b600080546001600160a01b038381167fffffffffffffffffffffffff0000000000000000000000000000000000000000831681178455604051919092169283917f8be0079c531659141344cd1fd0a4f28419497f9722a3daafe3b4186f6b6457e09190a35050565b6000610bbb610b5f610bc1565b836040517f19010000000000000000000000000000000000000000000000000000000000006020820152602281018390526042810182905260009060620160405160208183030381529060405280519060200120905092915050565b92915050565b60007f0000000000000000000000000000000000000000000000000000000000000000461415610c1057507f000000000000000000000000000000000000000000000000000000000000000090565b50604080517f00000000000000000000000000000000000000000000000000000000000000006020808301919091527f0000000000000000000000000000000000000000000000000000000000000000828401527f000000000000000000000000000000000000000000000000000000000000000060608301524660808301527f00000000000000000000000000000000000000000000000000000000000000006001600160a01b031660a0808401919091528351808403909101815260c0909201909252805191012090565b80518015158114610ced57600080fd5b919050565b600082601f830112610d02578081fd5b813567ffffffffffffffff80821115610d1d57610d1d610f49565b604051601f8301601f19908116603f01168101908282118183101715610d4557610d45610f49565b81604052838152866020858801011115610d5d578485fd5b8360208701602083013792830160200193909352509392505050565b600060208284031215610d8a578081fd5b8135610d9581610f78565b9392505050565b600080600080600060a08688031215610db3578081fd5b8551610dbe81610f78565b6020870151909550610dcf81610f78565b6040870151909450610de081610f78565b60608701519093509150610df660808701610cdd565b90509295509295909350565b600080600080600060a08688031215610e19578081fd5b8535610e2481610f78565b94506020860135610e3481610f78565b93506040860135925060608601359150608086013567ffffffffffffffff811115610e5d578182fd5b610e6988828901610cf2565b9150509295509295909350565b60008060408385031215610e88578182fd5b8235610e9381610f78565b946020939093013593505050565b600060208284031215610eb2578081fd5b610d9582610cdd565b60008060408385031215610ecd578182fd5b82359150602083013567ffffffffffffffff811115610eea578182fd5b610ef685828601610cf2565b9150509250929050565b60008060008060008060c08789031215610f18578081fd5b865195506020870151945060408701519350606087015192506080870151915060a087015190509295509295509295565b7f4e487b7100000000000000000000000000000000000000000000000000000000600052604160045260246000fd5b6001600160a01b038116811461079d57600080fdfea26469706673582212207b61f71e421c9c770d38cd7a7da092b84546cf11128c5002f496c17fb5763e7a64736f6c63430008040033",
  "linkReferences": {},
  "deployedLinkReferences": {}
}