{
  "_format": "hh-sol-artifact-1",
  "contractName": "Liquidator",
  "sourceName": "contracts/Liquidator.sol",
  "abi": [
    {
      "inputs": [
        {
          "internalType": "address",
          "name": "limitOrderProtocol",
          "type": "address"
        },
        {
          "internalType": "contract ILendingPoolAddressesProvider",
          "name": "_lendingPoolAddressProvider",
          "type": "address"
        }
      ],
      "stateMutability": "nonpayable",
      "type": "constructor"
    },
    {
      "anonymous": false,
      "inputs": [
        {
          "indexed": true,
          "internalType": "address",
          "name": "previousOwner",
          "type": "address"
        },
        {
          "indexed": true,
          "internalType": "address",
          "name": "newOwner",
          "type": "address"
        }
      ],
      "name": "OwnershipTransferred",
      "type": "event"
    },
    {
      "inputs": [],
      "name": "ADDRESSES_PROVIDER",
      "outputs": [
        {
          "internalType": "contract ILendingPoolAddressesProvider",
          "name": "",
          "type": "address"
        }
      ],
      "stateMutability": "view",
      "type": "function"
    },
    {
      "inputs": [],
      "name": "LENDING_POOL",
      "outputs": [
        {
          "internalType": "contract ILendingPool",
          "name": "",
          "type": "address"
        }
      ],
      "stateMutability": "view",
      "type": "function"
    },
    {
      "inputs": [],
      "name": "LIMIT_ORDER_PROTOCOL",
      "outputs": [
        {
          "internalType": "address",
          "name": "",
          "type": "address"
        }
      ],
      "stateMutability": "view",
      "type": "function"
    },
    {
      "inputs": [],
      "name": "LIMIT_ORDER_TYPEHASH",
      "outputs": [
        {
          "internalType": "bytes32",
          "name": "",
          "type": "bytes32"
        }
      ],
      "stateMutability": "view",
      "type": "function"
    },
    {
      "inputs": [],
      "name": "fee",
      "outputs": [
        {
          "internalType": "uint256",
          "name": "",
          "type": "uint256"
        }
      ],
      "stateMutability": "view",
      "type": "function"
    },
    {
      "inputs": [
        {
          "internalType": "address",
          "name": "_user",
          "type": "address"
        }
      ],
      "name": "getHealthFactor",
      "outputs": [
        {
          "internalType": "uint256",
          "name": "",
          "type": "uint256"
        }
      ],
      "stateMutability": "view",
      "type": "function"
    },
    {
      "inputs": [
        {
          "internalType": "address",
          "name": "_user",
          "type": "address"
        },
        {
          "internalType": "uint256",
          "name": "_threshold",
          "type": "uint256"
        }
      ],
      "name": "isHFBelowThreshold",
      "outputs": [
        {
          "internalType": "bool",
          "name": "",
          "type": "bool"
        }
      ],
      "stateMutability": "view",
      "type": "function"
    },
    {
      "inputs": [
        {
          "internalType": "bytes32",
          "name": "hash",
          "type": "bytes32"
        },
        {
          "internalType": "bytes",
          "name": "signature",
          "type": "bytes"
        }
      ],
      "name": "isValidSignature",
      "outputs": [
        {
          "internalType": "bytes4",
          "name": "",
          "type": "bytes4"
        }
      ],
      "stateMutability": "view",
      "type": "function"
    },
    {
      "inputs": [
        {
          "internalType": "address",
          "name": "makerAsset",
          "type": "address"
        },
        {
          "internalType": "address",
          "name": "takerAsset",
          "type": "address"
        },
        {
          "internalType": "uint256",
          "name": "makingAmount",
          "type": "uint256"
        },
        {
          "internalType": "uint256",
          "name": "takingAmount",
          "type": "uint256"
        },
        {
          "internalType": "bytes",
          "name": "interactiveData",
          "type": "bytes"
        }
      ],
      "name": "notifyFillOrder",
      "outputs": [],
      "stateMutability": "nonpayable",
      "type": "function"
    },
    {
      "inputs": [
        {
          "internalType": "address",
          "name": "",
          "type": "address"
        },
        {
          "internalType": "uint256",
          "name": "",
          "type": "uint256"
        }
      ],
      "name": "orders",
      "outputs": [
        {
          "internalType": "uint256",
          "name": "salt",
          "type": "uint256"
        },
        {
          "internalType": "address",
          "name": "makerAsset",
          "type": "address"
        },
        {
          "internalType": "address",
          "name": "takerAsset",
          "type": "address"
        },
        {
          "internalType": "bytes",
          "name": "makerAssetData",
          "type": "bytes"
        },
        {
          "internalType": "bytes",
          "name": "takerAssetData",
          "type": "bytes"
        },
        {
          "internalType": "bytes",
          "name": "getMakerAmount",
          "type": "bytes"
        },
        {
          "internalType": "bytes",
          "name": "getTakerAmount",
          "type": "bytes"
        },
        {
          "internalType": "bytes",
          "name": "predicate",
          "type": "bytes"
        },
        {
          "internalType": "bytes",
          "name": "permit",
          "type": "bytes"
        },
        {
          "internalType": "bytes",
          "name": "interaction",
          "type": "bytes"
        }
      ],
      "stateMutability": "view",
      "type": "function"
    },
    {
      "inputs": [],
      "name": "owner",
      "outputs": [
        {
          "internalType": "address",
          "name": "",
          "type": "address"
        }
      ],
      "stateMutability": "view",
      "type": "function"
    },
    {
      "inputs": [],
      "name": "renounceOwnership",
      "outputs": [],
      "stateMutability": "nonpayable",
      "type": "function"
    },
    {
      "inputs": [
        {
          "internalType": "uint256",
          "name": "_newFee",
          "type": "uint256"
        }
      ],
      "name": "setFee",
      "outputs": [],
      "stateMutability": "nonpayable",
      "type": "function"
    },
    {
      "inputs": [
        {
          "internalType": "address",
          "name": "newOwner",
          "type": "address"
        }
      ],
      "name": "transferOwnership",
      "outputs": [],
      "stateMutability": "nonpayable",
      "type": "function"
    }
  ],
  "bytecode": "0x6101a06040523480156200001257600080fd5b506040516200182b3803806200182b833981016040819052620000359162000260565b604080518082018252601a81527f31696e6368204c696d6974204f726465722050726f746f636f6c00000000000060208083019182528351808501855260018152603160f81b90820152915190206001600160601b0319606086811b821661012081905260c08481527fc89efdaa54c0f20c7adf612882df0950f5a951637e0307cdcb4c672f298b8bc660e08190524660a081815289517f8b73c3c69bb8fe3d512ecc4cf759cc79239f7b179b0ffacaa9a75d522b39400f818b01819052818c0199909952808701939093526080838101929092526001600160a01b03808d16848301528a518085039092018252938301808b528151918a019190912090915261010096909652610140929092529187901b90921661016052630261bf8b60e01b9092529251849391841692630261bf8b9260c48082019391829003018186803b1580156200018357600080fd5b505afa15801562000198573d6000803e3d6000fd5b505050506040513d601f19601f82011682018060405250810190620001be91906200023a565b60601b6001600160601b0319166101805250620001e2620001dc3390565b620001ea565b5050620002b7565b600080546001600160a01b038381166001600160a01b0319831681178455604051919092169283917f8be0079c531659141344cd1fd0a4f28419497f9722a3daafe3b4186f6b6457e09190a35050565b6000602082840312156200024c578081fd5b815162000259816200029e565b9392505050565b6000806040838503121562000273578081fd5b825162000280816200029e565b602084015190925062000293816200029e565b809150509250929050565b6001600160a01b0381168114620002b457600080fd5b50565b60805160a05160c05160e051610100516101205160601c6101405160601c6101605160601c6101805160601c6114d5620003566000396000818161023e0152818161050d01528181610b9301528181610d2a0152610e570152600060f401526000818161026501526103ba0152600061106101526000610fe6015260006110350152600061101001526000610f9401526000610fbd01526114d56000f3fe608060405234801561001057600080fd5b50600436106100ea5760003560e01c8063793b8c6d1161008c578063c145938411610066578063c145938414610260578063ddca3f4314610287578063f2fde38b14610290578063fe6bcd7c146102a357600080fd5b8063793b8c6d146101ff5780638da5cb5b14610228578063b4dcfc771461023957600080fd5b80635410c2e1116100c85780635410c2e11461018c57806354dd5f74146101af57806369fe0e2d146101e4578063715018a6146101f757600080fd5b80630542975c146100ef5780631626ba7e1461013357806348705b8b14610177575b600080fd5b6101167f000000000000000000000000000000000000000000000000000000000000000081565b6040516001600160a01b0390911681526020015b60405180910390f35b61014661014136600461128a565b6102b6565b6040517fffffffff00000000000000000000000000000000000000000000000000000000909116815260200161012a565b61018a6101853660046111d1565b6103af565b005b61019f61019a366004611245565b6104e9565b604051901515815260200161012a565b6101d67ffa76738caa33f429c9819be9551680fe012078ffe06b83407d6b965125e8763681565b60405190815260200161012a565b61018a6101f23660046112cf565b610596565b61018a6105f5565b61021261020d366004611245565b61065b565b60405161012a9a9998979695949392919061137b565b6000546001600160a01b0316610116565b6101167f000000000000000000000000000000000000000000000000000000000000000081565b6101167f000000000000000000000000000000000000000000000000000000000000000081565b6101d660025481565b61018a61029e366004611148565b610a8d565b6101d66102b1366004611148565b610b6f565b6040818101516060830151608084015160a085015160c086015160e08701516101008801516101208901516101408a01516101608b015160009a968c01870196958c01860195948c01850194938c01840193928c01830192918c01820191908c01018c61032b8b8b8b8b8b8b8b8b8b8b610c19565b1461037d5760405162461bcd60e51b815260206004820152600960248201527f626164206f72646572000000000000000000000000000000000000000000000060448201526064015b60405180910390fd5b507f1626ba7e000000000000000000000000000000000000000000000000000000009c9b505050505050505050505050565b336001600160a01b037f000000000000000000000000000000000000000000000000000000000000000016146104275760405162461bcd60e51b815260206004820152601a60248201527f6f6e6c79204c4f502063616e20657865632063616c6c6261636b0000000000006044820152606401610374565b600080600080600085806020019051810190610443919061116b565b93985091965094509250905061045c8585858585610d13565b60405163095ea7b360e01b8152336004820152602481018990526001600160a01b038b169063095ea7b390604401602060405180830381600087803b1580156104a457600080fd5b505af11580156104b8573d6000803e3d6000fd5b505050506040513d601f19601f820116820180604052508101906104dc9190611270565b5050505050505050505050565b604051632fe4a15f60e21b81526001600160a01b03838116600483015260009182917f0000000000000000000000000000000000000000000000000000000000000000169063bf92857c9060240160c06040518083038186803b15801561054f57600080fd5b505afa158015610563573d6000803e3d6000fd5b505050506040513d601f19601f8201168201806040525081019061058791906112e7565b90971198975050505050505050565b6000546001600160a01b031633146105f05760405162461bcd60e51b815260206004820181905260248201527f4f776e61626c653a2063616c6c6572206973206e6f7420746865206f776e65726044820152606401610374565b600255565b6000546001600160a01b0316331461064f5760405162461bcd60e51b815260206004820181905260248201527f4f776e61626c653a2063616c6c6572206973206e6f7420746865206f776e65726044820152606401610374565b6106596000610eb9565b565b6001602052816000526040600020818154811061067757600080fd5b60009182526020909120600a909102018054600182015460028301546003840180549396506001600160a01b039283169550911692916106b690611439565b80601f01602080910402602001604051908101604052809291908181526020018280546106e290611439565b801561072f5780601f106107045761010080835404028352916020019161072f565b820191906000526020600020905b81548152906001019060200180831161071257829003601f168201915b50505050509080600401805461074490611439565b80601f016020809104026020016040519081016040528092919081815260200182805461077090611439565b80156107bd5780601f10610792576101008083540402835291602001916107bd565b820191906000526020600020905b8154815290600101906020018083116107a057829003601f168201915b5050505050908060050180546107d290611439565b80601f01602080910402602001604051908101604052809291908181526020018280546107fe90611439565b801561084b5780601f106108205761010080835404028352916020019161084b565b820191906000526020600020905b81548152906001019060200180831161082e57829003601f168201915b50505050509080600601805461086090611439565b80601f016020809104026020016040519081016040528092919081815260200182805461088c90611439565b80156108d95780601f106108ae576101008083540402835291602001916108d9565b820191906000526020600020905b8154815290600101906020018083116108bc57829003601f168201915b5050505050908060070180546108ee90611439565b80601f016020809104026020016040519081016040528092919081815260200182805461091a90611439565b80156109675780601f1061093c57610100808354040283529160200191610967565b820191906000526020600020905b81548152906001019060200180831161094a57829003601f168201915b50505050509080600801805461097c90611439565b80601f01602080910402602001604051908101604052809291908181526020018280546109a890611439565b80156109f55780601f106109ca576101008083540402835291602001916109f5565b820191906000526020600020905b8154815290600101906020018083116109d857829003601f168201915b505050505090806009018054610a0a90611439565b80601f0160208091040260200160405190810160405280929190818152602001828054610a3690611439565b8015610a835780601f10610a5857610100808354040283529160200191610a83565b820191906000526020600020905b815481529060010190602001808311610a6657829003601f168201915b505050505090508a565b6000546001600160a01b03163314610ae75760405162461bcd60e51b815260206004820181905260248201527f4f776e61626c653a2063616c6c6572206973206e6f7420746865206f776e65726044820152606401610374565b6001600160a01b038116610b635760405162461bcd60e51b815260206004820152602660248201527f4f776e61626c653a206e6577206f776e657220697320746865207a65726f206160448201527f64647265737300000000000000000000000000000000000000000000000000006064820152608401610374565b610b6c81610eb9565b50565b604051632fe4a15f60e21b81526001600160a01b03828116600483015260009182917f0000000000000000000000000000000000000000000000000000000000000000169063bf92857c9060240160c06040518083038186803b158015610bd557600080fd5b505afa158015610be9573d6000803e3d6000fd5b505050506040513d601f19601f82011682018060405250810190610c0d91906112e7565b98975050505050505050565b6000610d047ffa76738caa33f429c9819be9551680fe012078ffe06b83407d6b965125e876368c8c8c8c805190602001208c805190602001208c805190602001208c805190602001208c805190602001208c805190602001208c80519060200120604051602001610ce99b9a999897969594939291909a8b5260208b01999099526001600160a01b0397881660408b0152959096166060890152608088019390935260a087019190915260c086015260e08501526101008401919091526101208301526101408201526101600190565b60405160208183030381529060405280519060200120610f21565b9b9a5050505050505050505050565b60405163095ea7b360e01b81526001600160a01b037f0000000000000000000000000000000000000000000000000000000000000000811660048301526024820184905285169063095ea7b390604401602060405180830381600087803b158015610d7d57600080fd5b505af1158015610d91573d6000803e3d6000fd5b505050506040513d601f19601f82011682018060405250810190610db59190611270565b610e015760405162461bcd60e51b815260206004820152600e60248201527f417070726f76616c206572726f720000000000000000000000000000000000006044820152606401610374565b6040517ea718a90000000000000000000000000000000000000000000000000000000081526001600160a01b038681166004830152858116602483015284811660448301526064820184905282151560848301527f0000000000000000000000000000000000000000000000000000000000000000169062a718a99060a401600060405180830381600087803b158015610e9a57600080fd5b505af1158015610eae573d6000803e3d6000fd5b505050505050505050565b600080546001600160a01b038381167fffffffffffffffffffffffff0000000000000000000000000000000000000000831681178455604051919092169283917f8be0079c531659141344cd1fd0a4f28419497f9722a3daafe3b4186f6b6457e09190a35050565b6000610f8a610f2e610f90565b836040517f19010000000000000000000000000000000000000000000000000000000000006020820152602281018390526042810182905260009060620160405160208183030381529060405280519060200120905092915050565b92915050565b60007f0000000000000000000000000000000000000000000000000000000000000000461415610fdf57507f000000000000000000000000000000000000000000000000000000000000000090565b50604080517f00000000000000000000000000000000000000000000000000000000000000006020808301919091527f0000000000000000000000000000000000000000000000000000000000000000828401527f000000000000000000000000000000000000000000000000000000000000000060608301524660808301527f00000000000000000000000000000000000000000000000000000000000000006001600160a01b031660a0808401919091528351808403909101815260c0909201909252805191012090565b805180151581146110bc57600080fd5b919050565b600082601f8301126110d1578081fd5b813567ffffffffffffffff808211156110ec576110ec611474565b604051601f8301601f19908116603f0116810190828211818310171561111457611114611474565b8160405283815286602085880101111561112c578485fd5b8360208701602083013792830160200193909352509392505050565b600060208284031215611159578081fd5b81356111648161148a565b9392505050565b600080600080600060a08688031215611182578081fd5b855161118d8161148a565b602087015190955061119e8161148a565b60408701519094506111af8161148a565b606087015190935091506111c5608087016110ac565b90509295509295909350565b600080600080600060a086880312156111e8578081fd5b85356111f38161148a565b945060208601356112038161148a565b93506040860135925060608601359150608086013567ffffffffffffffff81111561122c578182fd5b611238888289016110c1565b9150509295509295909350565b60008060408385031215611257578182fd5b82356112628161148a565b946020939093013593505050565b600060208284031215611281578081fd5b611164826110ac565b6000806040838503121561129c578182fd5b82359150602083013567ffffffffffffffff8111156112b9578182fd5b6112c5858286016110c1565b9150509250929050565b6000602082840312156112e0578081fd5b5035919050565b60008060008060008060c087890312156112ff578081fd5b865195506020870151945060408701519350606087015192506080870151915060a087015190509295509295509295565b60008151808452815b8181101561135557602081850181015186830182015201611339565b818111156113665782602083870101525b50601f01601f19169290920160200192915050565b60006101408c83526001600160a01b03808d166020850152808c166040850152508060608401526113ae8184018b611330565b905082810360808401526113c2818a611330565b905082810360a08401526113d68189611330565b905082810360c08401526113ea8188611330565b905082810360e08401526113fe8187611330565b90508281036101008401526114138186611330565b90508281036101208401526114288185611330565b9d9c50505050505050505050505050565b600181811c9082168061144d57607f821691505b6020821081141561146e57634e487b7160e01b600052602260045260246000fd5b50919050565b634e487b7160e01b600052604160045260246000fd5b6001600160a01b0381168114610b6c57600080fdfea2646970667358221220938e78338ac5db2bcbbaf522b0877c93a40f36eae049b7b034ae2dfea0b7705e64736f6c63430008040033",
  "linkReferences": {},
  "deployedLinkReferences": {}
}