{
  "contractName": "AggregatorV3Mock",
  "abi": [
    {
      "inputs": [
        {
          "internalType": "int256",
          "name": "answer",
          "type": "int256"
        }
      ],
      "stateMutability": "nonpayable",
      "type": "constructor"
    },
    {
      "inputs": [],
      "name": "latestAnswer",
      "outputs": [
        {
          "internalType": "int256",
          "name": "",
          "type": "int256"
        }
      ],
      "stateMutability": "view",
      "type": "function"
    },
    {
      "inputs": [],
      "name": "latestTimestamp",
      "outputs": [
        {
          "internalType": "uint256",
          "name": "",
          "type": "uint256"
        }
      ],
      "stateMutability": "view",
      "type": "function"
    }
  ],
  "bytecode": "0x60a060405234801561001057600080fd5b5060405161026d38038061026d83398181016040528101906100329190610055565b80608081815250505061009f565b60008151905061004f81610088565b92915050565b60006020828403121561006757600080fd5b600061007584828501610040565b91505092915050565b6000819050919050565b6100918161007e565b811461009c57600080fd5b50565b6080516101b46100b96000396000607b01526101b46000f3fe608060405234801561001057600080fd5b50600436106100365760003560e01c806350d25bcd1461003b5780638205bf6a14610059575b600080fd5b610043610077565b60405161005091906100d1565b60405180910390f35b61006161009f565b60405161006e91906100ec565b60405180910390f35b60007f0000000000000000000000000000000000000000000000000000000000000000905090565b60006064426100ae9190610107565b905090565b6100bc8161013b565b82525050565b6100cb81610145565b82525050565b60006020820190506100e660008301846100b3565b92915050565b600060208201905061010160008301846100c2565b92915050565b600061011282610145565b915061011d83610145565b9250828210156101305761012f61014f565b5b828203905092915050565b6000819050919050565b6000819050919050565b7f4e487b7100000000000000000000000000000000000000000000000000000000600052601160045260246000fdfea264697066735822122064ddc2a60ae3eea0ec049aea143051fdf6d0b70b04ec7811e7675d163257d5de64736f6c63430008040033",
  "immutableReferences": {
    "3189": [
      {
        "length": 32,
        "start": 123
      }
    ]
  },
  "source": "// SPDX-License-Identifier: MIT\n\npragma solidity ^0.8.0;\n\nimport \"../interfaces/AggregatorV3Interface.sol\";\n\n\ncontract AggregatorV3Mock is AggregatorV3Interface {\n    int256 private immutable _answer;\n\n    constructor(int256 answer) {\n        _answer = answer;\n    }\n\n    function latestAnswer() external view override returns (int256) {\n        return _answer;\n    }\n\n    function latestTimestamp() external view override returns (uint256) {\n        // solhint-disable-next-line not-rely-on-time\n        return block.timestamp - 100;\n    }\n}\n",
  "sourcePath": "/Users/kirillmadorin/Desktop/Projects/consensys_bootcamp/blockchain-developer-bootcamp-final-project/contracts/mocks/AggregatorV3Mock.sol",
  "compiler": {
    "name": "solc",
    "version": "0.8.4+commit.c7e474f2.Emscripten.clang"
  },
  "schemaVersion": "3.4.1",
  "updatedAt": "2021-11-24T15:12:46.434Z",
  "devdoc": {
    "kind": "dev",
    "methods": {},
    "version": 1
  },
  "userdoc": {
    "kind": "user",
    "methods": {},
    "version": 1
  }
}