{
  "contractName": "Liquidator",
  "abi": [
    {
      "inputs": [
        {
          "internalType": "address",
          "name": "limitOrderProtocol",
          "type": "address"
        },
        {
          "internalType": "contract ILendingPoolAddressesProvider",
          "name": "_lendingPoolAddressProvider",
          "type": "address"
        }
      ],
      "stateMutability": "nonpayable",
      "type": "constructor"
    },
    {
      "anonymous": false,
      "inputs": [
        {
          "indexed": true,
          "internalType": "address",
          "name": "previousOwner",
          "type": "address"
        },
        {
          "indexed": true,
          "internalType": "address",
          "name": "newOwner",
          "type": "address"
        }
      ],
      "name": "OwnershipTransferred",
      "type": "event"
    },
    {
      "inputs": [],
      "name": "ADDRESSES_PROVIDER",
      "outputs": [
        {
          "internalType": "contract ILendingPoolAddressesProvider",
          "name": "",
          "type": "address"
        }
      ],
      "stateMutability": "view",
      "type": "function"
    },
    {
      "inputs": [],
      "name": "LENDING_POOL",
      "outputs": [
        {
          "internalType": "contract ILendingPool",
          "name": "",
          "type": "address"
        }
      ],
      "stateMutability": "view",
      "type": "function"
    },
    {
      "inputs": [],
      "name": "LIMIT_ORDER_PROTOCOL",
      "outputs": [
        {
          "internalType": "address",
          "name": "",
          "type": "address"
        }
      ],
      "stateMutability": "view",
      "type": "function"
    },
    {
      "inputs": [],
      "name": "LIMIT_ORDER_TYPEHASH",
      "outputs": [
        {
          "internalType": "bytes32",
          "name": "",
          "type": "bytes32"
        }
      ],
      "stateMutability": "view",
      "type": "function"
    },
    {
      "inputs": [],
      "name": "owner",
      "outputs": [
        {
          "internalType": "address",
          "name": "",
          "type": "address"
        }
      ],
      "stateMutability": "view",
      "type": "function"
    },
    {
      "inputs": [],
      "name": "renounceOwnership",
      "outputs": [],
      "stateMutability": "nonpayable",
      "type": "function"
    },
    {
      "inputs": [
        {
          "internalType": "address",
          "name": "newOwner",
          "type": "address"
        }
      ],
      "name": "transferOwnership",
      "outputs": [],
      "stateMutability": "nonpayable",
      "type": "function"
    },
    {
      "inputs": [
        {
          "internalType": "address",
          "name": "_user",
          "type": "address"
        }
      ],
      "name": "getUserAccountData",
      "outputs": [
        {
          "internalType": "uint256",
          "name": "totalCollateralETH",
          "type": "uint256"
        },
        {
          "internalType": "uint256",
          "name": "totalDebtETH",
          "type": "uint256"
        },
        {
          "internalType": "uint256",
          "name": "availableBorrowsETH",
          "type": "uint256"
        },
        {
          "internalType": "uint256",
          "name": "currentLiquidationThreshold",
          "type": "uint256"
        },
        {
          "internalType": "uint256",
          "name": "ltv",
          "type": "uint256"
        },
        {
          "internalType": "uint256",
          "name": "healthFactor",
          "type": "uint256"
        }
      ],
      "stateMutability": "view",
      "type": "function"
    },
    {
      "inputs": [
        {
          "internalType": "address",
          "name": "_user",
          "type": "address"
        },
        {
          "internalType": "uint256",
          "name": "_threshold",
          "type": "uint256"
        }
      ],
      "name": "isHFBelowThreshold",
      "outputs": [
        {
          "internalType": "bool",
          "name": "",
          "type": "bool"
        }
      ],
      "stateMutability": "view",
      "type": "function"
    },
    {
      "inputs": [
        {
          "internalType": "address",
          "name": "_user",
          "type": "address"
        }
      ],
      "name": "getHealthFactor",
      "outputs": [
        {
          "internalType": "uint256",
          "name": "",
          "type": "uint256"
        }
      ],
      "stateMutability": "view",
      "type": "function"
    },
    {
      "inputs": [
        {
          "internalType": "address",
          "name": "makerAsset",
          "type": "address"
        },
        {
          "internalType": "address",
          "name": "takerAsset",
          "type": "address"
        },
        {
          "internalType": "uint256",
          "name": "makingAmount",
          "type": "uint256"
        },
        {
          "internalType": "uint256",
          "name": "takingAmount",
          "type": "uint256"
        },
        {
          "internalType": "bytes",
          "name": "interactiveData",
          "type": "bytes"
        }
      ],
      "name": "notifyFillOrder",
      "outputs": [],
      "stateMutability": "nonpayable",
      "type": "function"
    },
    {
      "inputs": [
        {
          "internalType": "bytes32",
          "name": "hash",
          "type": "bytes32"
        },
        {
          "internalType": "bytes",
          "name": "signature",
          "type": "bytes"
        }
      ],
      "name": "isValidSignature",
      "outputs": [
        {
          "internalType": "bytes4",
          "name": "",
          "type": "bytes4"
        }
      ],
      "stateMutability": "view",
      "type": "function"
    }
  ],
  "bytecode": "0x6101a06040523480156200001257600080fd5b5060405162001fdd38038062001fdd833981810160405281019062000038919062000414565b8082806040518060400160405280601a81526020017f31696e6368204c696d6974204f726465722050726f746f636f6c0000000000008152506040518060400160405280600181526020017f310000000000000000000000000000000000000000000000000000000000000081525060008280519060200120905060008280519060200120905060007f8b73c3c69bb8fe3d512ecc4cf759cc79239f7b179b0ffacaa9a75d522b39400f90508573ffffffffffffffffffffffffffffffffffffffff166101208173ffffffffffffffffffffffffffffffffffffffff1660601b815250508260c081815250508160e081815250504660a081815250506200014881848489620002b160201b60201c565b608081815250508061010081815250505050505050508073ffffffffffffffffffffffffffffffffffffffff166101408173ffffffffffffffffffffffffffffffffffffffff1660601b81525050508073ffffffffffffffffffffffffffffffffffffffff166101608173ffffffffffffffffffffffffffffffffffffffff1660601b815250508073ffffffffffffffffffffffffffffffffffffffff16630261bf8b6040518163ffffffff1660e01b815260040160206040518083038186803b1580156200021657600080fd5b505afa1580156200022b573d6000803e3d6000fd5b505050506040513d601f19601f82011682018060405250810190620002519190620003e8565b73ffffffffffffffffffffffffffffffffffffffff166101808173ffffffffffffffffffffffffffffffffffffffff1660601b8152505050620002a96200029d620002ee60201b60201c565b620002f660201b60201c565b505062000575565b60008484844685604051602001620002ce95949392919062000488565b604051602081830303815290604052805190602001209050949350505050565b600033905090565b60008060009054906101000a900473ffffffffffffffffffffffffffffffffffffffff169050816000806101000a81548173ffffffffffffffffffffffffffffffffffffffff021916908373ffffffffffffffffffffffffffffffffffffffff1602179055508173ffffffffffffffffffffffffffffffffffffffff168173ffffffffffffffffffffffffffffffffffffffff167f8be0079c531659141344cd1fd0a4f28419497f9722a3daafe3b4186f6b6457e060405160405180910390a35050565b600081519050620003cb8162000541565b92915050565b600081519050620003e2816200055b565b92915050565b600060208284031215620003fb57600080fd5b60006200040b84828501620003ba565b91505092915050565b600080604083850312156200042857600080fd5b60006200043885828601620003ba565b92505060206200044b85828601620003d1565b9150509250929050565b6200046081620004e5565b82525050565b6200047181620004f9565b82525050565b620004828162000537565b82525050565b600060a0820190506200049f600083018862000466565b620004ae602083018762000466565b620004bd604083018662000466565b620004cc606083018562000477565b620004db608083018462000455565b9695505050505050565b6000620004f28262000517565b9050919050565b6000819050919050565b60006200051082620004e5565b9050919050565b600073ffffffffffffffffffffffffffffffffffffffff82169050919050565b6000819050919050565b6200054c81620004e5565b81146200055857600080fd5b50565b620005668162000503565b81146200057257600080fd5b50565b60805160a05160c05160e051610100516101205160601c6101405160601c6101605160601c6101805160601c6119c16200061c60003960008181610519015281816106bb015281816106e8015281816108d101528181610a710152610b41015260006102580152600081816103b101526107b201526000610d7801526000610d1501526000610d5701526000610d3601526000610cc201526000610cea01526119c16000f3fe608060405234801561001057600080fd5b50600436106100b45760003560e01c80638da5cb5b116100715780638da5cb5b1461017b578063b4dcfc7714610199578063bf92857c146101b7578063c1459384146101ec578063f2fde38b1461020a578063fe6bcd7c14610226576100b4565b80630542975c146100b95780631626ba7e146100d757806348705b8b146101075780635410c2e11461012357806354dd5f7414610153578063715018a614610171575b600080fd5b6100c1610256565b6040516100ce91906114d6565b60405180910390f35b6100f160048036038101906100ec919061108a565b61027a565b6040516100fe91906114bb565b60405180910390f35b610121600480360381019061011c9190610f96565b6103af565b005b61013d60048036038101906101389190611025565b610514565b60405161014a9190611387565b60405180910390f35b61015b6105e4565b60405161016891906113a2565b60405180910390f35b610179610608565b005b610183610690565b60405161019091906112f0565b60405180910390f35b6101a16106b9565b6040516101ae91906114f1565b60405180910390f35b6101d160048036038101906101cc9190610ef6565b6106dd565b6040516101e3969594939291906115c7565b60405180910390f35b6101f46107b0565b60405161020191906112f0565b60405180910390f35b610224600480360381019061021f9190610ef6565b6107d4565b005b610240600480360381019061023b9190610ef6565b6108cc565b60405161024d91906115ac565b60405180910390f35b7f000000000000000000000000000000000000000000000000000000000000000081565b600080600080606080606080606080606060408c0151995060608c0151985060808c0151975060a08c015160408d0101965060c08c015160408d0101955060e08c015160408d010194506101008c015160408d010193506101208c015160408d010192506101408c015160408d010191506101608c015160408d010190503073ffffffffffffffffffffffffffffffffffffffff1661032360008961099990919063ffffffff16565b73ffffffffffffffffffffffffffffffffffffffff1614801561035657508c6103548b8b8b8b8b8b8b8b8b8b6109ad565b145b610395576040517f08c379a000000000000000000000000000000000000000000000000000000000815260040161038c9061158c565b60405180910390fd5b631626ba7e60e01b9a505050505050505050505092915050565b7f000000000000000000000000000000000000000000000000000000000000000073ffffffffffffffffffffffffffffffffffffffff163373ffffffffffffffffffffffffffffffffffffffff161461043d576040517f08c379a00000000000000000000000000000000000000000000000000000000081526004016104349061154c565b60405180910390fd5b6000806000806000858060200190518101906104599190610f1f565b809550819650829750839850849950505050505061047a8585858585610a53565b8973ffffffffffffffffffffffffffffffffffffffff1663095ea7b3338a6040518363ffffffff1660e01b81526004016104b592919061135e565b602060405180830381600087803b1580156104cf57600080fd5b505af11580156104e3573d6000803e3d6000fd5b505050506040513d601f19601f820116820180604052508101906105079190611061565b5050505050505050505050565b6000807f000000000000000000000000000000000000000000000000000000000000000073ffffffffffffffffffffffffffffffffffffffff1663bf92857c856040518263ffffffff1660e01b815260040161057091906112f0565b60c06040518083038186803b15801561058857600080fd5b505afa15801561059c573d6000803e3d6000fd5b505050506040513d601f19601f820116820180604052508101906105c091906110de565b90919293945090919293509091925090915090508091505082811091505092915050565b7ffa76738caa33f429c9819be9551680fe012078ffe06b83407d6b965125e8763681565b610610610bd8565b73ffffffffffffffffffffffffffffffffffffffff1661062e610690565b73ffffffffffffffffffffffffffffffffffffffff1614610684576040517f08c379a000000000000000000000000000000000000000000000000000000000815260040161067b9061156c565b60405180910390fd5b61068e6000610be0565b565b60008060009054906101000a900473ffffffffffffffffffffffffffffffffffffffff16905090565b7f000000000000000000000000000000000000000000000000000000000000000081565b6000806000806000807f000000000000000000000000000000000000000000000000000000000000000073ffffffffffffffffffffffffffffffffffffffff1663bf92857c886040518263ffffffff1660e01b815260040161073f91906112f0565b60c06040518083038186803b15801561075757600080fd5b505afa15801561076b573d6000803e3d6000fd5b505050506040513d601f19601f8201168201806040525081019061078f91906110de565b809650819750829850839950849a50859b5050505050505091939550919395565b7f000000000000000000000000000000000000000000000000000000000000000081565b6107dc610bd8565b73ffffffffffffffffffffffffffffffffffffffff166107fa610690565b73ffffffffffffffffffffffffffffffffffffffff1614610850576040517f08c379a00000000000000000000000000000000000000000000000000000000081526004016108479061156c565b60405180910390fd5b600073ffffffffffffffffffffffffffffffffffffffff168173ffffffffffffffffffffffffffffffffffffffff1614156108c0576040517f08c379a00000000000000000000000000000000000000000000000000000000081526004016108b79061152c565b60405180910390fd5b6108c981610be0565b50565b6000807f000000000000000000000000000000000000000000000000000000000000000073ffffffffffffffffffffffffffffffffffffffff1663bf92857c846040518263ffffffff1660e01b815260040161092891906112f0565b60c06040518083038186803b15801561094057600080fd5b505afa158015610954573d6000803e3d6000fd5b505050506040513d601f19601f8201168201806040525081019061097891906110de565b90919293945090919293509091925090915090508091505080915050919050565b600060208202602484010151905092915050565b6000610a437ffa76738caa33f429c9819be9551680fe012078ffe06b83407d6b965125e876368c8c8c8c805190602001208c805190602001208c805190602001208c805190602001208c805190602001208c805190602001208c80519060200120604051602001610a289b9a99989796959493929190611410565b60405160208183030381529060405280519060200120610ca4565b90509a9950505050505050505050565b8373ffffffffffffffffffffffffffffffffffffffff1663095ea7b37f0000000000000000000000000000000000000000000000000000000000000000846040518363ffffffff1660e01b8152600401610aae92919061135e565b602060405180830381600087803b158015610ac857600080fd5b505af1158015610adc573d6000803e3d6000fd5b505050506040513d601f19601f82011682018060405250810190610b009190611061565b610b3f576040517f08c379a0000000000000000000000000000000000000000000000000000000008152600401610b369061150c565b60405180910390fd5b7f000000000000000000000000000000000000000000000000000000000000000073ffffffffffffffffffffffffffffffffffffffff1662a718a986868686866040518663ffffffff1660e01b8152600401610b9f95949392919061130b565b600060405180830381600087803b158015610bb957600080fd5b505af1158015610bcd573d6000803e3d6000fd5b505050505050505050565b600033905090565b60008060009054906101000a900473ffffffffffffffffffffffffffffffffffffffff169050816000806101000a81548173ffffffffffffffffffffffffffffffffffffffff021916908373ffffffffffffffffffffffffffffffffffffffff1602179055508173ffffffffffffffffffffffffffffffffffffffff168173ffffffffffffffffffffffffffffffffffffffff167f8be0079c531659141344cd1fd0a4f28419497f9722a3daafe3b4186f6b6457e060405160405180910390a35050565b6000610cb7610cb1610cbe565b83610da2565b9050919050565b60007f0000000000000000000000000000000000000000000000000000000000000000461415610d10577f00000000000000000000000000000000000000000000000000000000000000009050610d9f565b610d9c7f00000000000000000000000000000000000000000000000000000000000000007f00000000000000000000000000000000000000000000000000000000000000007f00000000000000000000000000000000000000000000000000000000000000007f0000000000000000000000000000000000000000000000000000000000000000610dd5565b90505b90565b60008282604051602001610db79291906112b9565b60405160208183030381529060405280519060200120905092915050565b60008484844685604051602001610df09594939291906113bd565b604051602081830303815290604052805190602001209050949350505050565b6000610e23610e1e8461164d565b611628565b905082815260208101848484011115610e3b57600080fd5b610e46848285611772565b509392505050565b600081359050610e5d81611918565b92915050565b600081519050610e728161192f565b92915050565b600081519050610e8781611946565b92915050565b600081359050610e9c8161195d565b92915050565b600082601f830112610eb357600080fd5b8135610ec3848260208601610e10565b91505092915050565b600081359050610edb81611974565b92915050565b600081519050610ef081611974565b92915050565b600060208284031215610f0857600080fd5b6000610f1684828501610e4e565b91505092915050565b600080600080600060a08688031215610f3757600080fd5b6000610f4588828901610e63565b9550506020610f5688828901610e63565b9450506040610f6788828901610e63565b9350506060610f7888828901610ee1565b9250506080610f8988828901610e78565b9150509295509295909350565b600080600080600060a08688031215610fae57600080fd5b6000610fbc88828901610e4e565b9550506020610fcd88828901610e4e565b9450506040610fde88828901610ecc565b9350506060610fef88828901610ecc565b925050608086013567ffffffffffffffff81111561100c57600080fd5b61101888828901610ea2565b9150509295509295909350565b6000806040838503121561103857600080fd5b600061104685828601610e4e565b925050602061105785828601610ecc565b9150509250929050565b60006020828403121561107357600080fd5b600061108184828501610e78565b91505092915050565b6000806040838503121561109d57600080fd5b60006110ab85828601610e8d565b925050602083013567ffffffffffffffff8111156110c857600080fd5b6110d485828601610ea2565b9150509250929050565b60008060008060008060c087890312156110f757600080fd5b600061110589828a01610ee1565b965050602061111689828a01610ee1565b955050604061112789828a01610ee1565b945050606061113889828a01610ee1565b935050608061114989828a01610ee1565b92505060a061115a89828a01610ee1565b9150509295509295509295565b6111708161169a565b82525050565b61117f816116be565b82525050565b61118e816116ca565b82525050565b6111a56111a0826116ca565b6117b2565b82525050565b6111b4816116d4565b82525050565b6111c38161172a565b82525050565b6111d28161174e565b82525050565b60006111e5600e8361167e565b91506111f0826117fc565b602082019050919050565b600061120860268361167e565b915061121382611825565b604082019050919050565b600061122b601a8361167e565b915061123682611874565b602082019050919050565b600061124e60028361168f565b91506112598261189d565b600282019050919050565b600061127160208361167e565b915061127c826118c6565b602082019050919050565b600061129460098361167e565b915061129f826118ef565b602082019050919050565b6112b381611720565b82525050565b60006112c482611241565b91506112d08285611194565b6020820191506112e08284611194565b6020820191508190509392505050565b60006020820190506113056000830184611167565b92915050565b600060a0820190506113206000830188611167565b61132d6020830187611167565b61133a6040830186611167565b61134760608301856112aa565b6113546080830184611176565b9695505050505050565b60006040820190506113736000830185611167565b61138060208301846112aa565b9392505050565b600060208201905061139c6000830184611176565b92915050565b60006020820190506113b76000830184611185565b92915050565b600060a0820190506113d26000830188611185565b6113df6020830187611185565b6113ec6040830186611185565b6113f960608301856112aa565b6114066080830184611167565b9695505050505050565b600061016082019050611426600083018e611185565b611433602083018d6112aa565b611440604083018c611167565b61144d606083018b611167565b61145a608083018a611185565b61146760a0830189611185565b61147460c0830188611185565b61148160e0830187611185565b61148f610100830186611185565b61149d610120830185611185565b6114ab610140830184611185565b9c9b505050505050505050505050565b60006020820190506114d060008301846111ab565b92915050565b60006020820190506114eb60008301846111ba565b92915050565b600060208201905061150660008301846111c9565b92915050565b60006020820190508181036000830152611525816111d8565b9050919050565b60006020820190508181036000830152611545816111fb565b9050919050565b600060208201905081810360008301526115658161121e565b9050919050565b6000602082019050818103600083015261158581611264565b9050919050565b600060208201905081810360008301526115a581611287565b9050919050565b60006020820190506115c160008301846112aa565b92915050565b600060c0820190506115dc60008301896112aa565b6115e960208301886112aa565b6115f660408301876112aa565b61160360608301866112aa565b61161060808301856112aa565b61161d60a08301846112aa565b979650505050505050565b6000611632611643565b905061163e8282611781565b919050565b6000604051905090565b600067ffffffffffffffff821115611668576116676117bc565b5b611671826117eb565b9050602081019050919050565b600082825260208201905092915050565b600081905092915050565b60006116a582611700565b9050919050565b60006116b782611700565b9050919050565b60008115159050919050565b6000819050919050565b60007fffffffff0000000000000000000000000000000000000000000000000000000082169050919050565b600073ffffffffffffffffffffffffffffffffffffffff82169050919050565b6000819050919050565b60006117358261173c565b9050919050565b600061174782611700565b9050919050565b600061175982611760565b9050919050565b600061176b82611700565b9050919050565b82818337600083830152505050565b61178a826117eb565b810181811067ffffffffffffffff821117156117a9576117a86117bc565b5b80604052505050565b6000819050919050565b7f4e487b7100000000000000000000000000000000000000000000000000000000600052604160045260246000fd5b6000601f19601f8301169050919050565b7f417070726f76616c206572726f72000000000000000000000000000000000000600082015250565b7f4f776e61626c653a206e6577206f776e657220697320746865207a65726f206160008201527f6464726573730000000000000000000000000000000000000000000000000000602082015250565b7f6f6e6c79204c4f502063616e20657865632063616c6c6261636b000000000000600082015250565b7f1901000000000000000000000000000000000000000000000000000000000000600082015250565b7f4f776e61626c653a2063616c6c6572206973206e6f7420746865206f776e6572600082015250565b7f626164206f726465720000000000000000000000000000000000000000000000600082015250565b6119218161169a565b811461192c57600080fd5b50565b611938816116ac565b811461194357600080fd5b50565b61194f816116be565b811461195a57600080fd5b50565b611966816116ca565b811461197157600080fd5b50565b61197d81611720565b811461198857600080fd5b5056fea26469706673582212204a1f086089f31f4c9a07623932e18ca1e47362c5373eb1fd955cc285e825d68964736f6c63430008040033",
  "immutableReferences": {
    "2438": [
      {
        "length": 32,
        "start": 600
      }
    ],
    "2441": [
      {
        "length": 32,
        "start": 1305
      },
      {
        "length": 32,
        "start": 1723
      },
      {
        "length": 32,
        "start": 1768
      },
      {
        "length": 32,
        "start": 2257
      },
      {
        "length": 32,
        "start": 2673
      },
      {
        "length": 32,
        "start": 2881
      }
    ],
    "2467": [
      {
        "length": 32,
        "start": 3306
      }
    ],
    "2469": [
      {
        "length": 32,
        "start": 3266
      }
    ],
    "2471": [
      {
        "length": 32,
        "start": 3382
      }
    ],
    "2473": [
      {
        "length": 32,
        "start": 3415
      }
    ],
    "2475": [
      {
        "length": 32,
        "start": 3349
      }
    ],
    "2477": [
      {
        "length": 32,
        "start": 3448
      }
    ],
    "2628": [
      {
        "length": 32,
        "start": 945
      },
      {
        "length": 32,
        "start": 1970
      }
    ]
  },
  "source": "// SPDX-License-Identifier: MIT\npragma solidity ^0.8.0;\n\nimport \"./helpers/AaveBase.sol\";\nimport \"./helpers/LimitOrderProtocolBase.sol\";\nimport \"./interfaces/ILendingPoolAddressesProvider.sol\";\n\n\ncontract Liquidator is LimitOrderProtocolBase, AaveBase, Ownable {\n    using SafeERC20 for IERC20;\n    using ArgumentsDecoder for bytes;\n    using SafeMath for uint256;\n\n    uint256 constant private _FROM_INDEX = 0;\n    uint256 constant private _TO_INDEX = 1;\n    uint256 constant private _AMOUNT_INDEX = 2;\n\n    constructor(address limitOrderProtocol, ILendingPoolAddressesProvider _lendingPoolAddressProvider)\n    LimitOrderProtocolBase(limitOrderProtocol) AaveBase(_lendingPoolAddressProvider) {}\n\n    function getUserAccountData(address _user)\n    external\n    view\n    returns (\n        uint256 totalCollateralETH,\n        uint256 totalDebtETH,\n        uint256 availableBorrowsETH,\n        uint256 currentLiquidationThreshold,\n        uint256 ltv,\n        uint256 healthFactor\n    ) {\n        (totalCollateralETH, totalDebtETH, availableBorrowsETH, currentLiquidationThreshold, ltv, healthFactor) = LENDING_POOL.getUserAccountData(_user);\n    }\n\n    function isHFBelowThreshold(address _user, uint256 _threshold) external view returns(bool) {\n        uint256 _healthFactor;\n        (, , , , , _healthFactor) = LENDING_POOL.getUserAccountData(_user);\n        return _healthFactor < _threshold;\n    }\n\n    function getHealthFactor(address _user) external view returns(uint256) {\n        uint256 _healthFactor;\n        (, , , , , _healthFactor) = LENDING_POOL.getUserAccountData(_user);\n        return _healthFactor;\n    }\n\n\n    function _liquidate(\n        address _collateral,\n        address _reserve,\n        address _user,\n        uint256 _purchaseAmount,\n        bool _receiveaToken\n    )\n    internal\n    {\n        require(IERC20(_reserve).approve(address(LENDING_POOL), _purchaseAmount), \"Approval error\");\n        LENDING_POOL.liquidationCall(_collateral, _reserve, _user, _purchaseAmount, _receiveaToken);\n    }\n\n    function notifyFillOrder(\n        address makerAsset,\n        address takerAsset,\n        uint256 makingAmount,\n        uint256 takingAmount,\n        bytes memory interactiveData // abi.encode(orderHash)\n    ) external override {\n        require(msg.sender == LIMIT_ORDER_PROTOCOL, \"only LOP can exec callback\");\n        makerAsset;\n        takingAmount;\n        address collateral;\n        address reserve;\n        address user;\n        uint256 purchaseAmount;\n        bool receiveaToken;\n\n        (collateral, reserve, user, purchaseAmount, receiveaToken) = abi.decode(interactiveData, (address, address, address, uint256, bool));\n        _liquidate(collateral, reserve, user, purchaseAmount, receiveaToken);\n        IERC20(makerAsset).approve(msg.sender, makingAmount);\n    }\n\n    function isValidSignature(bytes32 hash, bytes memory signature) external override view returns(bytes4) {\n        uint256 salt;\n        address makerAsset;\n        address takerAsset;\n        bytes memory makerAssetData;\n        bytes memory takerAssetData;\n        bytes memory getMakerAmount;\n        bytes memory getTakerAmount;\n        bytes memory predicate;\n        bytes memory permit;\n        bytes memory interaction;\n\n        assembly {  // solhint-disable-line no-inline-assembly\n            salt := mload(add(signature, 0x40))\n            makerAsset := mload(add(signature, 0x60))\n            takerAsset := mload(add(signature, 0x80))\n            makerAssetData := add(add(signature, 0x40), mload(add(signature, 0xA0)))\n            takerAssetData := add(add(signature, 0x40), mload(add(signature, 0xC0)))\n            getMakerAmount := add(add(signature, 0x40), mload(add(signature, 0xE0)))\n            getTakerAmount := add(add(signature, 0x40), mload(add(signature, 0x100)))\n            predicate := add(add(signature, 0x40), mload(add(signature, 0x120)))\n            permit := add(add(signature, 0x40), mload(add(signature, 0x140)))\n            interaction := add(add(signature, 0x40), mload(add(signature, 0x160)))\n        }\n\n        require(\n            makerAssetData.decodeAddress(_FROM_INDEX) == address(this) &&\n            _hash(salt, makerAsset, takerAsset, makerAssetData, takerAssetData, getMakerAmount, getTakerAmount, predicate, permit, interaction) == hash,\n            \"bad order\"\n        );\n\n        return this.isValidSignature.selector;\n    }\n\n}\n",
  "sourcePath": "/Users/kirillmadorin/Desktop/Projects/consensys_bootcamp/blockchain-developer-bootcamp-final-project/contracts/Liquidator.sol",
  "compiler": {
    "name": "solc",
    "version": "0.8.4+commit.c7e474f2.Emscripten.clang"
  },
  "schemaVersion": "3.4.1",
  "updatedAt": "2021-11-24T15:12:46.416Z",
  "devdoc": {
    "kind": "dev",
    "methods": {
      "owner()": {
        "details": "Returns the address of the current owner."
      },
      "renounceOwnership()": {
        "details": "Leaves the contract without owner. It will not be possible to call `onlyOwner` functions anymore. Can only be called by the current owner. NOTE: Renouncing ownership will leave the contract without an owner, thereby removing any functionality that is only available to the owner."
      },
      "transferOwnership(address)": {
        "details": "Transfers ownership of the contract to a new account (`newOwner`). Can only be called by the current owner."
      }
    },
    "version": 1
  },
  "userdoc": {
    "kind": "user",
    "methods": {
      "isValidSignature(bytes32,bytes)": {
        "notice": "validate signature from Limit Order Protocol, checks also asset and amount consistency"
      },
      "notifyFillOrder(address,address,uint256,uint256,bytes)": {
        "notice": "callback from limit order protocol, executes on order fill"
      }
    },
    "version": 1
  }
}