{
  "contractName": "MockAggregator",
  "abi": [
    {
      "inputs": [
        {
          "internalType": "int256",
          "name": "_initialAnswer",
          "type": "int256"
        }
      ],
      "stateMutability": "nonpayable",
      "type": "constructor"
    },
    {
      "anonymous": false,
      "inputs": [
        {
          "indexed": true,
          "internalType": "int256",
          "name": "current",
          "type": "int256"
        },
        {
          "indexed": true,
          "internalType": "uint256",
          "name": "roundId",
          "type": "uint256"
        },
        {
          "indexed": false,
          "internalType": "uint256",
          "name": "timestamp",
          "type": "uint256"
        }
      ],
      "name": "AnswerUpdated",
      "type": "event"
    },
    {
      "inputs": [],
      "name": "latestAnswer",
      "outputs": [
        {
          "internalType": "int256",
          "name": "",
          "type": "int256"
        }
      ],
      "stateMutability": "view",
      "type": "function"
    },
    {
      "inputs": [],
      "name": "getTokenType",
      "outputs": [
        {
          "internalType": "uint256",
          "name": "",
          "type": "uint256"
        }
      ],
      "stateMutability": "pure",
      "type": "function"
    },
    {
      "inputs": [
        {
          "internalType": "int256",
          "name": "_newAnswer",
          "type": "int256"
        }
      ],
      "name": "setLatestAnswer",
      "outputs": [],
      "stateMutability": "nonpayable",
      "type": "function"
    }
  ],
  "bytecode": "0x608060405234801561001057600080fd5b506040516103023803806103028339818101604052810190610032919061008e565b806000819055506000817f0559884fd3a460db3073b7fc896cc77986f16e378210ded43186175bf646fc5f4260405161006b91906100c6565b60405180910390a35061010c565b600081519050610088816100f5565b92915050565b6000602082840312156100a057600080fd5b60006100ae84828501610079565b91505092915050565b6100c0816100eb565b82525050565b60006020820190506100db60008301846100b7565b92915050565b6000819050919050565b6000819050919050565b6100fe816100e1565b811461010957600080fd5b50565b6101e78061011b6000396000f3fe608060405234801561001057600080fd5b50600436106100415760003560e01c806304ea97b01461004657806350d25bcd14610062578063fcab181914610080575b600080fd5b610060600480360381019061005b9190610109565b61009e565b005b61006a6100e2565b6040516100779190610150565b60405180910390f35b6100886100eb565b604051610095919061016b565b60405180910390f35b806000819055506000817f0559884fd3a460db3073b7fc896cc77986f16e378210ded43186175bf646fc5f426040516100d7919061016b565b60405180910390a350565b60008054905090565b60006001905090565b6000813590506101038161019a565b92915050565b60006020828403121561011b57600080fd5b6000610129848285016100f4565b91505092915050565b61013b81610186565b82525050565b61014a81610190565b82525050565b60006020820190506101656000830184610132565b92915050565b60006020820190506101806000830184610141565b92915050565b6000819050919050565b6000819050919050565b6101a381610186565b81146101ae57600080fd5b5056fea26469706673582212208f446751b4c17b00b7a43ae69d73f60922608d5efcbfa46f9e3c66aa2fb2a2a064736f6c63430008040033",
  "immutableReferences": {},
  "source": "// SPDX-License-Identifier: agpl-3.0\npragma solidity ^0.8.0;\n\ncontract MockAggregator {\n    int256 private _latestAnswer;\n\n    event AnswerUpdated(int256 indexed current, uint256 indexed roundId, uint256 timestamp);\n\n    constructor(int256 _initialAnswer) {\n        _latestAnswer = _initialAnswer;\n        emit AnswerUpdated(_initialAnswer, 0, block.timestamp);\n    }\n\n    function latestAnswer() external view returns (int256) {\n        return _latestAnswer;\n    }\n\n    function getTokenType() external pure returns (uint256) {\n        return 1;\n    }\n\n    function setLatestAnswer(int256 _newAnswer) external {\n        _latestAnswer = _newAnswer;\n        emit AnswerUpdated(_newAnswer, 0, block.timestamp);\n    }\n\n    // function getSubTokens() external view returns (address[] memory) {\n    // TODO: implement mock for when multiple subtokens. Maybe we need to create diff mock contract\n    // to call it from the migration for this case??\n    // }\n}\n",
  "sourcePath": "/Users/kirillmadorin/Desktop/Projects/consensys_bootcamp/blockchain-developer-bootcamp-final-project/contracts/mocks/MockAggregator.sol",
  "compiler": {
    "name": "solc",
    "version": "0.8.4+commit.c7e474f2.Emscripten.clang"
  },
  "schemaVersion": "3.4.1",
  "updatedAt": "2021-11-24T15:14:07.657Z",
  "devdoc": {
    "kind": "dev",
    "methods": {},
    "version": 1
  },
  "userdoc": {
    "kind": "user",
    "methods": {},
    "version": 1
  }
}